:020000040800F2
:10000000A802002095010008990100089B01000842
:100010009D0100089F010008A101000800000000E8
:10002000000000000000000000000000A301000824
:10003000A501000800000000A7010008A9010008B0
:10004000830B0008AB010008AB010008FD27000886
:10005000AB010008AB010008AB280008D131000853
:10006000AB010008AB010008AB010008AB010008C0
:10007000AB010008AB010008AB010008AB010008B0
:10008000AB010008AB010008AB010008AB010008A0
:10009000AB010008AB010008AB010008AB01000890
:1000A000AB010008AB010008AB010008AB01000880
:1000B000AB010008DD0B0008AB010008AB01000834
:1000C000AB010008AB010008AB010008AB01000860
:1000D000AB010008AB010008AB010008AB01000850
:1000E000AB010008AB010008AB01000800F002F80A
:1000F00000F041F80AA090E8000C82448344AAF181
:100100000107DA4501D100F036F8AFF2090EBAE87E
:100110000F0013F0010F18BFFB1A43F0010318473B
:100120002C5700004C570000103A24BF78C878C103
:10013000FAD8520724BF30C830C144BF04680C60ED
:10014000704700000023002400250026103A28BF35
:1001500078C1FBD8520728BF30C148BF0B60704739
:10016000782903F02587002070471FB5AFF3008082
:100170001FBD10B510BD03F0D1FF1146FFF7F5FF0D
:1001800000F022F803F0EFFFFFF7F3FF00F05EFB53
:1001900030BF000008480047FEE7FEE7FEE7FEE745
:1001A000FEE7FEE7FEE7FEE7FEE7FEE70348044959
:1001B000024A044B70470000ED000008A800002030
:1001C000A8020020A800002070B58AB000260920EF
:1001D00000F0E2FA482000F079F94FF41651482077
:1001E00000F042FB00F0AFFE00F0E6FB00F0A4FBE5
:1001F00003F018FD4FF478407249088072A2322152
:100200003C2002F021F873A246213C2002F01CF8A9
:1002100074A25A213C2002F017F876A26E213C20ED
:1002200002F012F819E076A282213C2002F00CF8CC
:100230004FF4FA7000F061F976A282213C2002F0BE
:1002400003F84FF4FA7000F058F97748006808B9DD
:10025000012000E000207449086003F05DFD0028E3
:10026000E1D172A282213C2001F0EEFF73A296211F
:100270000A2001F0E9FF1EE000F0D1FB0446012C4A
:1002800001D1002518E0022C01D1012514E0701CD9
:1002900086B2642E04D170A296210A2001F0D4FF08
:1002A000C82E05D1002665A296210A2001F0CCFFB8
:1002B000052000F022F9DFE700BF4FF6FF7300933F
:1002C000A623F02296210A2001F083FD1F203D493C
:1002D0000880002D2BD167A296213C2001F0B4FFAD
:1002E00069A2AA213C2001F0AFFF03F0AAFD1DE0A6
:1002F00001A803F089FD38B900208DF8240001AA77
:10030000BE2101F0A1FF02E0642000F011F9701C91
:1003100086B2A6F51C50103808D100264248006865
:1003200008B9012000E000203F490860E0E75AA238
:1003300096213C2001F088FF03F0A9FD20253FE035
:1003400001A803F032FD202820D158A2AA213C2088
:1003500001F07AFF01AABE21002001F075FF2C46B2
:10036000002608E0601CC4B27E2C00DD202401A819
:100370008455701C86B2202EF4DB681CC5B27E2D1D
:1003800000DD202500208DF824000DE04BA2AA21DD
:100390003C2001F059FF4FF6FF730093DA23F0225F
:1003A000BC21002001F015FD1F48006808B901209C
:1003B00000E000201C49086040F2DC5000F09DF88D
:1003C000BEE700000A0000204D696E692053544DBD
:1003D000333200004E524632344C303120544553B3
:1003E0005400000041544F4D40414C49454E544546
:1003F0004B000000323031312F312F31000000002E
:1004000032344C303120436865636B204661696C3F
:1004100065642100506C6561736520436865636B9A
:100420002120202020202000A001214232344C3005
:100430003120526561647921000000004B4559303C
:100440003A52585F4D6F646520204B4559313A54FC
:10045000585F4D6F64650000202020202020202060
:10046000202020202020202020202020202020208C
:10047000202000004E524632344C30312052585F1A
:100480004D6F6465000000005265636569766564C0
:1004900020444154413A00004E524632344C3031EF
:1004A0002054585F4D6F64650000000053656E6412
:1004B000656420444154413A0000000053656E6475
:1004C000204661696C656420000000004FF0E02167
:1004D000096921F004014FF0E02211610146C217C1
:1004E00000EB5272D2101F4B1A70194609784FF464
:1004F0007A7251439A1C118070471A4A921C1288D2
:1005000042434FF0E0235A6100229A6101221A61AE
:1005100000BF4FF0E022116911F0010F02D011F479
:10052000803FF6D000224FF0E0231A619A617047B5
:100530000C4A127842434FF0E0235A6100229A613C
:1005400001221A6100BF4FF0E022116911F0010F82
:1005500002D011F4803FF6D000224FF0E0231A6160
:100560009A61704700000020AC4A0A400243AC4B3D
:100570001A607047072323EA00021202A84B1B1DD2
:1005800019684FF6FF031940A64B194311434FF06A
:10059000E023C3F80C1D70472DE9F04704460D46D3
:1005A00016461F463046F11706EB91714FEAA10936
:1005B000F11706EB91718910A6EB810101F0FF0A9A
:1005C000042101EBCA0000F0FF0A3846FFF7D2FF12
:1005D000C7F1040004FA00F80F203841284040EA2F
:1005E000080808F00F08202E09DA8F48006801215A
:1005F000B14008434FF0E021C1F800010BE08A4808
:10060000001D0168A6F120020120904001434FF037
:10061000E020C0F80411854850F8290008FA0AF1D2
:100620000143824840F82910BDE8F08770B50D46B7
:10063000CE1701EB9676B310CE1701EB9676B61077
:10064000A1EB8606B606340E794DAD6945F001057D
:10065000774EB5614FEAB63555F823600F25A540B2
:10066000AE43744D45F8236055F8235000FA04F664
:100670003543704E46F823506F4D2E6801258D404E
:100680002E436C4D083DC5F8006412F0010F09D0EF
:10069000694D0C352E6801258D402E43654D083D72
:1006A000C5F80C6412F0020F09D0634D08352E68AE
:1006B00001258D402E435F4D083DC5F8086470BD8F
:1006C00000B500205A490861C86014204861002024
:1006D0008861C8610846006840F00100086008466B
:1006E00040685649084052494860084600685449E5
:1006F00008404F4908600846006820F480200860E0
:100700000846406820F4FE00486000208860002110
:100710004FF00060FFF728FF00BD10B540480830DB
:10072000006840F004004FF0E021C1F8100D40488F
:10073000C06940F080503E49C8614248406840F47A
:100740008070404948600846006840F00400086036
:100750000846006840F002000860FFF719FD10BD70
:100760003048001D2E49091D0860704701460846A3
:1007700049062F4A926942F001022D4B9A612D4A97
:10078000083A526822F0E0622A4B083B5A601A4647
:1007900052680A435A60704730B504460025FFF797
:1007A0008FFF2348006840F480302149086000BF73
:1007B0001F480068400CFBD04FF480601C49486023
:1007C000A01EC4B20846406840EA8440486008461B
:1007D000406840F4803048601B48006840F03200B8
:1007E000194908601248006840F08070104908609C
:1007F00000BF0F480068400EFBD00D48406840F035
:1008000002000B49486005E009484068C0F38705CD
:1008100005F00305022DF7D130BD000080FFFF1F5A
:1008200008ED00E00000FA0500E100E000E400E06F
:100830000010024008000140000401400000FFF8E1
:10084000FFFFF6FE0070004000200240014600BF9E
:10085000704700BF324A128812F0400FFAD0C2B27D
:100860002F4B1B1D1A8070472DE9F05F04460D4683
:10087000280104F0AAF881462A4904FB01F004F09B
:10088000A4F88246494603F031FF0646304604F09C
:1008900057F887B2384604F098F88346314604F09A
:1008A00042F982464FF0834104F094F8814604F007
:1008B00047F880463F0107EB080087B21A48806975
:1008C00040F00400184988610846806940F480407F
:1008D00088611648006820F47F601549C1F8040853
:1008E0000846D0F8040840F40B60C1F804080E482C
:1008F000C06840F480400C49C8600846C06820F4D5
:100900008040C8600B48A0F8087805480C30008883
:1009100042F20C01084302490C310880BDE8F09F07
:100920000038014040420F0000100240040801401E
:1009300000000140003001401B48806940F0040085
:10094000194988610846806940F02000886117488D
:10095000006820F00F001649C1F804080846D0F8D6
:10096000040840F00300C1F804080846D0F80C0859
:1009700040F48070C1F80C080E48D0F8000420F450
:1009800070600C49C1F800040846D0F8000440F437
:100990004070C1F800040846D0F80C0440F0040090
:1009A000C1F80C0470470000001002400408014028
:1009B00000000140001001403D48806940F0040003
:1009C0003B4988613B48006820F00F003A49C1F874
:1009D00000080846D0F8000840F00800C1F80008F8
:1009E0003448001D0068354908403349C1F80408FF
:1009F0003048001D0068324908432F49C1F80408F7
:100A00000846D0F80C0840F40050C1F80C0808461D
:100A1000D0F80C0840F40040C1F80C08704710B53D
:100A20000220FFF7A3FE2748007800282BD0264895
:100A3000006840B124480830006820B122483438AA
:100A4000006801281FD10A20FFF757FD00201D492B
:100A500008701D48006820B90120FFF787FE0120BB
:100A600010BD19480830006820B90120FFF77EFE4C
:100A70000220F5E7144834380068012813D1FFF745
:100A800075FE0320ECE71048006801280BD10E48E2
:100A900008300068012806D10B483438006810B9C6
:100AA0000120084908700120FFF760FE0020D7E709
:100AB000001002400008014000000140FFFF0F0F3E
:100AC00000008080080000203401214245F2555288
:100AD0003B4B1A601A46506091604AF6AA221A608F
:100AE0004CF6CC421A6070474AF6AA203449086096
:100AF000704770B504460D4616463248C06940F44A
:100B000000603049C8613049097804EA01002E4983
:100B100008702E48006840EAC6102D49C1F8040C40
:100B20000846D0F8040C40F40070C1F8040C2748C3
:100B300000684FF6807108402549C1F8040C08464A
:100B4000D0F8040C2843C1F8040C2048001F0068AA
:100B50001D49097841F0800108431D49C1F8000C86
:100B60000223002203211846FFF716FD70BD174926
:100B7000091F096800F07F021143154AC2F8001CE2
:100B8000704710B51148006800F07F031048D0F896
:100B9000000C00F07F049C4203DA0B480078FFF75A
:100BA000E6FF00200949091D08600A48D0F88801BD
:100BB00008B9012000E000200749086010BD0000CE
:100BC000003000400010024009000020042C0040CA
:100BD000002000400080224288812242484800884C
:100BE00010F0010F07D04748006808B9012000E065
:100BF0000020444908604248008820F001004FF07E
:100C00008041A1F81004704770B504460D463E4877
:100C1000C06940F002003C49C86139481C3004807A
:100C20008804A0F82854B0F80C0440F001008904AE
:100C3000A1F80C040846B0F80C0440F04000A1F8FC
:100C40000C040846B0F8000440F00100A1F80004CC
:100C500002231D2203210120FFF79EFC70BD2A4ABA
:100C6000D26942F00202284BDA61284A126822F067
:100C70000F02274BC3F804281A46D2F8042842F082
:100C80000402C3F804281A46D2F8002822F0704261
:100C9000C3F800281A46D2F8002842F03042C3F8C0
:100CA00000281A46D2F80C2842F08002C3F80C281B
:100CB0009A03A2F82C04A2F82814B2F8182442F4DB
:100CC000E0429B03A3F818241A46B2F8182442F411
:100CD0000062A3F818241A46B2F8202442F0100249
:100CE000074B10331A80DA13D303A3F80024D2037E
:100CF000B2F8002442F00102014B103B1A80704709
:100D00001004004088812242001002400408014083
:100D1000000001404FF48071FF4A51614900516168
:100D2000FE4908608021516111618900116170479D
:100D300010B504460B462046FFF7ECFF4FF48070D9
:100D4000F549086140004861F4480360802048612B
:100D500008618000086110BD70B504462046FFF7A9
:100D6000D9FF4FF08830ED490C390860EC49C1F8E3
:100D7000040C4FF6FF70E94908608815E6490861E0
:100D800040004861402048610520FFF7D1FB40202A
:100D9000E1490861E248D0F8080C85B248150861BD
:100DA0004FF03330DD490C390860091D08604FF6FB
:100DB000FF70DA490860284670BD00B52220FFF7B1
:100DC000A9FF00BD4FF48071D34A11614900516100
:100DD000D249086080215161116189001161704719
:100DE00030B5014601F01F04C1F34513CA0AE502FC
:100DF00005EB43151544A8B230BD70B504460D4649
:100E0000F02C02DAB5F5A07F01DB002070BD294689
:100E1000204603F0AFF92220FFF77CFF4FF0883027
:100E2000BE490C390860BE49C1F8040C4FF6FF708A
:100E3000BA4908608815B8490861400048614020F7
:100E4000486108610220FFF773FB4020B249486106
:100E50000220FFF76DFB4020AF490861B048D0F891
:100E6000080C86B2481508614FF03330AB490C3995
:100E70000860091D08604FF6FF70A949C1F80C0C05
:100E8000A8480088A0F58A41353911D0A5480088C6
:100E9000A0F58A4131390BD0A2480088A0F509415C
:100EA000893905D09F480088A0F53541053901D121
:100EB0003046ABE73046FFF793FFA7E700B540F2B7
:100EC00073110720FFF734FF00BD00B50021072094
:100ED000FFF72EFF00BD70B504460D46294620469B
:100EE00003F048F92220FFF715FF4FF480708A497C
:100EF0000861400048618C4800888849086080206B
:100F00008549486108618000086170BD70B505467B
:100F100000240021084603F02DF9FFF74EFF00BF23
:100F20000DE04FF480707C490861400048617B48C7
:100F3000056080204861086180000861641CB4F588
:100F4000963FEED370BD10B57848806940F0080038
:100F5000764988610846806940F01000886108463B
:100F6000806940F0010088610120FFF7FFFB6A48BB
:100F700040686FF30B00684948600846406840F2DB
:100F800033310843644948600846006820F07F40D8
:100F900008600846006840F04C5008600846C06889
:100FA00040F4F860C8604FF033305C49083908609D
:100FB0005B49C1F8000C4FF6FF70584908603220B9
:100FC000FFF79BFA01210020FFF7B2FE3220FFF766
:100FD00094FA0020FFF7C0FE5249088008460188B5
:100FE00053A002F09DFF4F480088A0F5134125391A
:100FF00005D04C480088A0F5134128397ED1102136
:10100000E720FFF795FE01210020FFF791FE4FF446
:1010100080710120FFF78CFE4FF4E0610220FFF7A2
:1010200087FE41F230010320FFF782FE00210420F9
:10103000FFF77EFE40F207210820FFF779FE00212E
:101040000920FFF775FE00210A20FFF771FE01213C
:101050000C20FFF76DFE00210D20FFF769FE002137
:101060000F20FFF765FE00211020FFF761FE07212A
:101070001120FFF75DFE00211220FFF759FE00212D
:101080001320FFF755FE3220FFF737FA41F2905157
:101090001020FFF74DFE40F227211120FFF748FEF8
:1010A0003220FFF72AFA9C211220FFF741FE32205E
:1010B000FFF723FA4FF4C8511320FFF739FE23211D
:1010C0002920FFF735FE0E212B20FFF731FE3220BD
:1010D000FFF713FA00212020FFF72AFE40F23F110C
:1010E0002120FFF725FE3220FFF707FA07213020E5
:1010F000FFF71EFE40F20771312000E09AE0FFF793
:1011000017FE06213220FFF713FE40F2047135204E
:10111000FFF70EFE12E00000001001400C0C014031
:10112000000001400E0000200A00002000100240D4
:10113000204C43442049443A25780A0041F6047182
:101140003620FFF7F5FD04213720FFF7F1FD0021E0
:101150003820FFF7EDFD40F206713920FFF7E8FD7A
:1011600040F201713C20FFF7E3FD0F213D20FFF726
:10117000DFFD3220FFF7C1F900215020FFF7D8FD35
:10118000EF215120FFF7D4FD00215220FFF7D0FDC1
:1011900040F23F115320FFF7CBFD4FF42741602071
:1011A000FFF7C6FD01216120FFF7C2FD00216A2083
:1011B000FFF7BEFD00218020FFF7BAFD002181204E
:1011C000FFF7B6FD00218220FFF7B2FD002183204A
:1011D000FFF7AEFD00218420FFF7AAFD0021852046
:1011E000FFF7A6FD10219020FFF7A2FD002192201D
:1011F000FFF79EFD03219320FFF79AFD4FF48871BE
:101200009520FFF795FD00219720FFF791FD002124
:101210009820FFF78DFD40F233110720FFF788FD7E
:1012200000212020FFF784FD40F23F112120FFF72D
:101230007FFD7FE2FF480088A0F51341203904D0EC
:10124000FC480088B0F5134F7ED100210846FFF717
:101250006FFD4FF480710120FFF76AFD4FF4E061EC
:101260000220FFF765FD41F230010320FFF760FD2A
:1012700000210420FFF75CFD40F202210820FFF767
:1012800057FD00210920FFF753FD00210A20FFF739
:101290004FFD01210C20FFF74BFD00210D20FFF732
:1012A00047FD00210F20FFF743FD3220FFF725F90E
:1012B00040F201110720FFF73BFD3220FFF71DF937
:1012C0004FF486511020FFF733FD07211120FFF75F
:1012D0002FFD4FF488711220FFF72AFD4FF4306183
:1012E0001320FFF725FD00212920FFF721FD44F2FF
:1012F00010012B20FFF71CFD00215020FFF718FDE7
:10130000EF215120FFF714FD00215220FFF710FDBF
:1013100040F23F115320FFF70BFD4FF41C516020AA
:10132000FFF706FD01216120FFF702FD00216A2081
:10133000FFF7FEFC00218020FFF7FAFC002181204E
:10134000FFF7F6FC002100E02DE08220FFF7F0FC23
:1013500000218320FFF7ECFC00218420FFF7E8FC4C
:1013600000218520FFF7E4FC10219020FFF7E0FC2E
:1013700000219220FFF7DCFC01219320FFF7D8FC2D
:101380004FF488719520FFF7D3FC00219720FFF7D9
:10139000CFFC00219820FFF7CBFC40F2731107200F
:1013A000FFF7C6FC45E7A3480088A0F5A841083927
:1013B0007ED14FF480710120FFF7BAFC4FF4E06159
:1013C0000220FFF7B5FC41F230010320FFF7B0FC2B
:1013D00000210420FFF7ACFC40F207210820FFF7B2
:1013E000A7FC00210920FFF7A3FC00210A20FFF73A
:1013F0009FFC00210C20FFF79BFC00210D20FFF734
:1014000097FC00210F20FFF793FC1420FFF775F8DD
:1014100041F2B0611020FFF78BFC01211120FFF792
:1014200087FC01211720FFF783FC4FF49C711220E9
:10143000FFF77EFC4FF400611320FFF779FC0921D0
:101440002920FFF775FC09212A20FFF771FC0021F4
:10145000A420FFF76DFC00215020FFF769FCEF216D
:101460005120FFF765FC00215220FFF761FC40F29C
:101470003F115320FFF75CFC4FF41C516020FFF735
:1014800057FC01216120FFF753FC00216A20FFF780
:101490004FFC00218020FFF74BFC00218120FFF74B
:1014A00047FC00218220FFF743FC0021832000E05D
:1014B00023E0FFF73DFC00218420FFF739FC0021E9
:1014C0008520FFF735FC13219020FFF731FC002128
:1014D0009220FFF72DFC03219320FFF729FC4FF406
:1014E00088719520FFF724FC40F273110720FFF765
:1014F0001FFC3220FFF701F89BE64E480088A0F55C
:10150000A85105397ED10720FFF712FC3220FEF7E3
:10151000F4FF4FF48E711220FFF70AFC0121A42082
:10152000FFF706FC0F210820FFF702FC08210A2024
:10153000FFF7FEFB08210D20FFF7FAFB40F20771D1
:101540003020FFF7F5FB07213120FFF7F1FB40F2D8
:1015500003613220FFF7ECFB4FF4E0613320FFF72B
:10156000E7FB40F202213420FFF7E2FB02213520A5
:10157000FFF7DEFB41F60F713620FFF7D9FB40F293
:1015800007713720FFF7D4FB00213820FFF7D0FB8D
:1015900000213920FFF7CCFB40F207713A20FFF71A
:1015A000C7FB00213B20FFF7C3FB07213C20FFF7CF
:1015B000BFFB00213D20FFF7BBFB3220FEF79DFF64
:1015C00001210720FFF7B4FB01211720FFF7B0FB33
:1015D0003220FEF792FF4FF4BD511020FFF7A8FB19
:1015E00040F217211120FFF7A3FB4FF48F71122057
:1015F000FFF79EFB4FF470611320FFF799FB00216A
:101600002A2000E097E0FFF793FB0A212920FFF74B
:101610008FFB4FF49F711220FFF78AFB00215020AF
:10162000FFF786FBEF215120FFF782FB00215220BC
:1016300002E000000E000020FFF77AFB40F23F11AD
:101640005320FFF775FB4FF41C516020FFF770FB30
:1016500001216120FFF76CFB00216A20FFF768FB86
:1016600000218020FFF764FB00218120FFF760FB51
:1016700000218220FFF75CFB00218320FFF758FB4D
:1016800000218420FFF754FB00218520FFF750FB49
:1016900013219020FFF74CFB4FF440719220FFF78D
:1016A00047FB05219320FFF743FB00219520FFF71F
:1016B0003FFB00219720FFF73BFB00219820FFF71D
:1016C00037FB4FF480710120FFF732FB4FF4E061EC
:1016D0000220FFF72DFB41F230010320FFF728FB2A
:1016E00000210420FFF724FB00210C20FFF720FB42
:1016F00000210F20FFF71CFB00212020FFF718FB23
:1017000000212120FFF714FB21210720FFF710FB08
:101710001420FEF7F2FE61210720FFF709FB1420D9
:10172000FEF7EBFE40F273110720FFF701FB1420D8
:10173000FEF7E3FE45E3FF480088A0F53541053993
:101740007DD10846FFF7F4FA00210846FFF7F0FACA
:1017500000210846FFF7ECFA00210846FFF7E8FAF7
:101760000121A420FFF7E4FA1420FEF7C6FE4FF48F
:101770001C516020FFF7DCFA40F202210820FFF73D
:10178000D7FA4FF405713020FFF7D2FA43F2157102
:101790003120FFF7CDFA40F204613220FFF7C8FA9A
:1017A00040F616613320FFF7C3FA42F211213420CC
:1017B000FFF7BEFA4FF4A8513520FFF7B9FA48F207
:1017C00007513620FFF7B4FA41F207413720FFF7FF
:1017D000AFFA41F203413820FFF7AAFA202139205D
:1017E000FFF7A6FA1A219020FFF7A2FA0021102095
:1017F000FFF79EFA07211120FFF79AFA0021122025
:10180000FFF796FA00211320FFF792FA1420FEF753
:1018100074FE4FF4E6611020FFF78AFA40F23711A8
:101820001120FFF785FA1420FEF767FE4FF4DC71F4
:101830001220FFF77DFA1420FEF75FFE00E083E040
:101840004FF470611320FFF773FA80212A20FFF70D
:101850006FFA48212920FFF76BFA1420FEF74DFE9E
:101860004FF480710120FFF763FA4FF4E06102202A
:10187000FFF75EFA41F230210320FFF759FA40F2F8
:1018800002210820FFF754FA00210A20FFF750FA3E
:1018900000210C20FFF74CFA00210D20FFF748FA39
:1018A00030210E20FFF744FA00215020FFF740FAC4
:1018B000EF215120FFF73CFA00215220FFF738FAC0
:1018C00040F23F115320FFF733FA4FF41C516020D0
:1018D000FFF72EFA01216120FFF72AFA00216A2082
:1018E000FFF726FA11219020FFF722FA4FF4C0618A
:1018F0009220FFF71DFA40F202419320FFF718FAF9
:1019000002219420FFF714FA1420FEF7F6FD0121BE
:101910000720FFF70DFA1420FEF7EFFD61210720E5
:10192000FFF706FA40F273110720FFF701FA0021D2
:101930002020FFF7FDF900212120FFF7F9F92221EE
:101940000020FFF7F5F93CE27A480088A0F509414C
:1019500089397DD101210020FFF7EAF94AF6A40177
:101960000320FFF7E5F900210C20FFF7E1F940F62D
:101970000C010D20FFF7DCF94FF42C510E20FFF77E
:10198000D7F9B0211E20FFF7D3F942F63F310120ED
:10199000FFF7CEF94FF4C0610220FFF7C9F900212B
:1019A0001020FFF7C5F946F270011120FFF7C0F9CA
:1019B00000210520FFF7BCF900210620FFF7B8F948
:1019C0004EF61C711620FFF7B3F903211720FFF71D
:1019D000AFF940F233210720FFF7AAF900210B20CD
:1019E000FFF7A6F900210F20FFF7A2F900214120FF
:1019F000FFF79EF900214220FFF79AF900214820C5
:101A0000FFF796F940F23F114920FFF791F90021C5
:101A10004A20FFF78DF900214B20FFF789F94FF499
:101A20006F414420FFF784F900214520FFF780F93A
:101A300040F23F114620FFF77BF940F2077130205A
:101A4000FFF776F94FF401713120FFF771F900E0EB
:101A50003DE04FF401713220FFF76AF940F2025184
:101A60003320FFF765F940F207513420FFF760F9A2
:101A70004FF401713520FFF75BF94FF40171362007
:101A8000FFF756F940F202513720FFF751F940F2C3
:101A900002313A20FFF74CF940F202313B20FFF7C8
:101AA00047F900212320FFF743F900212420FFF705
:101AB0003FF94FF400412520FFF73AF900214F206C
:101AC000FFF736F900214E20FFF732F979E1194886
:101AD0000088A0F58A4131397ED101210020FFF72D
:101AE00027F90A20FEF709FD41F228611020FFF7CF
:101AF0001FF90E211220FFF71BF940F639211320A0
:101B0000FFF716F90A20FEF7F8FC40211120FFF735
:101B10000FF950211520FFF70BF90A20FEF7EDFC15
:101B20001E211220FFF704F90A20FEF7E6FC4FF40D
:101B3000B15101E00E0000201020FFF7F9F842F645
:101B400039211320FFF7F4F80A20FEF7D6FC4FF4F2
:101B500080710120FFF7ECF84FF440710220FFF78D
:101B6000E7F841F230010320FFF7E2F840F20221EA
:101B70000820FFF7DDF808210A20FFF7D9F8002137
:101B80003020FFF7D5F840F202413120FFF7D0F8BE
:101B90004FF483713220FFF7CBF840F2035133202A
:101BA000FFF7C6F84FF482713420FFF7C1F840F216
:101BB00001313520FFF7BCF840F207713620FFF7FE
:101BC000B7F840F205313720FFF7B2F84FF4027151
:101BD0003820FFF7ADF800E03EE040F60B71392009
:101BE000FFF7A6F802214120FFF7A2F84FF41C519D
:101BF0006020FFF79DF801216120FFF799F84FF46D
:101C000004719020FFF794F84FF485719220FFF74C
:101C10008FF804219320FFF78BF84FF48071A020F8
:101C2000FFF786F801210720FFF782F8212107201E
:101C3000FFF77EF823210720FFF77AF833210720EA
:101C4000FFF776F840F233110720FFF771F8002113
:101C5000A020FFF76DF8B4E0F9480088A0F58A41AC
:101C60003539F8D130211520FFF762F810219A207C
:101C7000FFF75EF820211120FFF75AF843F22841C0
:101C80001020FFF755F802211220FFF751F841F21A
:101C900038011320FFF74CF82820FEF72EFC122104
:101CA0000846FFF745F82820FEF727FC43F22041BD
:101CB0001020FFF73DF843F238011320FFF738F802
:101CC0004620FEF71AFC00213020FFF731F840F2E1
:101CD00002413120FFF72CF840F207313220FFF7A4
:101CE00027F84FF441713320FFF722F80421342004
:101CF000FFF71EF840F201413520FFF719F840F2D6
:101D000007713620FFF714F840F205313720FFF74E
:101D10000FF84FF4C2613820FFF70AF84FF4C261A0
:101D20003920FFF705F84FF480710120FFF700F824
:101D30004FF440710220FEF7FBFF41F23001032017
:101D4000FEF7F6FF40F608010820FEF7F1FF082134
:101D50000A20FEF7EDFF4FF41C516020FEF7E8FF6C
:101D600001216120FEF7E4FF4FF49F719020FEF700
:101D7000DFFF4FF480719220FEF7DAFF4FF480719D
:101D80009320FEF7D5FF4FF44051A020FEF7D0FF7F
:101D90001021A320FEF7CCFF01210720FEF7C8FF8A
:101DA00021210720FEF7C4FF23210720FEF7C0FFF3
:101DB00033210720FEF7BCFF40F233110720FEF766
:101DC000B7FF01209F4908604FF6FF70FFF79EF8AC
:101DD00010BD2DE9F05F04460D4616461F46DDF89E
:101DE00028804FF0000B301B401C1FFA80FBA946D7
:101DF00020E04946204602F0BDF9FEF7DEFF4FF035
:101E0000000A11E04FF480708F490861400048617A
:101E10008E48C0F80C8C8020486108618000086101
:101E20000AF101001FFA80FADA45EBDB09F1010043
:101E30001FFA80F9B945DCDDBDE8F09F2DE9FF4FC1
:101E400085B004460D461646002004900390A6EB8C
:101E500004080898A0EB0509A3460095B8F1000F07
:101E600002DD012001900AE0B8F1000F02D100204C
:101E7000019004E04FF0FF300190C8F10008B9F183
:101E8000000F02DD4FF0010A09E0B9F1000F02D1A5
:101E90004FF0000A03E04FF0FF3AC9F10009C845CE
:101EA00002DDCDF8088001E0CDF80890002722E09F
:101EB000009881B21FFA8BF0FFF70DF804984044A8
:101EC000049003984844039002990498884205DDE1
:101ED00004990298081A049001988344DDE90210DD
:101EE000884206DDDDE90210401A03900098504454
:101EF0000090781C87B20298401C8742D8DD09B058
:101F0000BDE8F08F2DE9F04104460D4616461F4608
:101F10002B46324629462046FFF790FF3B46224695
:101F200029462046FFF78AFF3B463246394620467F
:101F3000FFF784FF3B46324629463046FFF77EFFD7
:101F4000BDE8F0812DE9F04704460D46164600270E
:101F5000B0460320A0EB460954E0EA1B91B2A4EB83
:101F6000080290B2FEF7B7FFEA1B91B204EB080239
:101F700090B2FEF7B0FF05EB080291B2E21B90B2FF
:101F8000FEF7A9FFEA1B91B2A4EB080290B2FEF79C
:101F9000A2FFA5EB080291B2E21B90B2FEF79BFFF5
:101FA000EA1991B204EB080290B2FEF794FFA5EB98
:101FB000080291B2E21990B2FEF78DFF05EB08021C
:101FC00091B2E21990B2FEF786FFEA1991B2A4EB42
:101FD000080290B2FEF77FFF7F1CB9F1000F03DA11
:101FE000B800801D814406E0A7EB080080000A309D
:101FF0008144A8F1010805EB080291B2E21990B200
:10200000FEF769FF4745A8DDBDE8F0872DE9F84FE9
:1020100004460D4616461F46A3460D48008800900C
:10202000E82C02DCB5F59C7F01DDBDE8F88FA6F158
:102030002000C6B20A98002844D181463FE0000043
:102040000E000020A80122420010014000000140C3
:102050000A0000200C2F07D106EB46008D4901EB4A
:10206000800010F8098004E08B4800EB061010F89F
:1020700009804FF0000A16E018F0010F03D08749DD
:102080000098088003E08648008884490880294633
:102090002046FEF720FF4FEA6808601C84B20AF170
:1020A000010000F0FF0A07EBD771BAEB610FE3DB29
:1020B0005C46681C85B209F1010000F0FF09B945D2
:1020C000C8DB30E04FF000092BE00C2F07D106EB06
:1020D0004600704901EB800010F8098004E06E486A
:1020E00000EB061010F809804FF0000A10E018F01D
:1020F000010F07D005EB090291B204EB0A0290B27E
:10210000FEF7E9FE4FEA68080AF1010000F0FF0A55
:1021100007EBD771BAEB610FE9DB09F1010000F0C1
:10212000FF09B945D1DB5D49009808807DE710B50E
:102130000246012000E050430B00A1F10104E1B28E
:10214000F9D110BD2DE9FF4F81B0044615461E465A
:102150000E9F4FF0000AD0463EE0A6EB0800401E5E
:10216000C1B20A20FFF7E3FFB5FBF0F00A21B0FB94
:10217000F1F201FB120000F0FF09BAF1000F16D1D5
:10218000701E404513DDB9F1000F0ED10023BB4690
:1021900007EBD771491001FB084188B200933B4619
:1021A00020220299FFF732FF12E04FF0010A0023CC
:1021B000BB4607EBD771491001FB084188B2009379
:1021C0003B4609F13001CAB20299FFF71FFF00BF79
:1021D00008F1010000F0FF08B045BEDB05B0BDE826
:1021E000F08F2DE9F84F04460D4616461F46DDF8E0
:1021F00028804FF0000923E0A7EB0900401EC1B280
:102200000A20FFF794FFB6FBF0F00A21B0FBF1F2D1
:1022100001FB120000F0FF0A0B9BC34608EBD871CC
:10222000491001FB094188B2009343460AF130018D
:10223000CAB22946FFF7EAFE09F1010000F0FF09E2
:10224000B945D9DBBDE8F88FF8B504460D4616460A
:102250001BE0E82C03DD002405F1100085B2B5F584
:102260009C7F06DD0020044605464FF6FF70FEF712
:102270004DFE002300933278102329462046FFF7B5
:10228000C5FE04F1080084B2761C30780028E0D145
:10229000F8BD00007A4D0008EE5100080A00002049
:1022A0000C000020F0B50346642093FBF0F0C5B2AB
:1022B000642093FBF0F700FB1730C6B2132D02DD4C
:1022C00006F16400C6B2F71706EB9777304606EBC7
:1022D000A704072094FBF0F700FB174084B2A01876
:1022E0004F1EDFF86CC41CF80770384484B2F7172F
:1022F00006EB9777BF10B6EB870703D1032901DA06
:10230000601E84B2072094FBF0F700FB1740C0B2B8
:10231000F0BD0146CA1701EB92729210B1EB820236
:1023200012D1642091FBF0F200FB121050B94FF46F
:10233000C87091FBF0F200FB121008B90120704741
:102340000020FCE70120FAE70020F8E770B500263E
:1023500000240025FF4806883604FF48B0F81C0812
:102360000644FE48B6FBF0F4FD480088A0423AD08F
:10237000FB490C8040F2B2750EE02846FFF7C9FF1A
:1023800030B1B4F5B77F02D3A4F5B77402E006E02C
:10239000A4F26D14681C85B2B4F5B67FEDD800BF09
:1023A000F0488580002516E0EE498888FFF7B1FFE8
:1023B00030B1012D04D11D2C01D31D3C09E00CE0EE
:1023C000E948405DA04203D8E748405D241A00E098
:1023D00003E0681C85B21C2CE6D200BF681CE149F2
:1023E0008871601CC871DD48B6FBF0F100FB116418
:1023F0004FF46160B4FBF0F0DA4908704FF46160AB
:10240000B4FBF0F100FB11403C21B0FBF1F0D549E9
:1024100048704FF46160B4FBF0F100FB11403C21C7
:10242000B0FBF1F201FB1200CE4988700B46DA795D
:1024300099799888FFF736FFCA490872002070BD65
:102440002DE9F04704460D461646DDE908784FF0C1
:10245000000A40F2B270844203DB40F6330084424B
:1024600002DD0120BDE8F08740F2B2790CE0484679
:10247000FFF74FFF10B1BD48824401E0BC488244E1
:1024800009F101001FFA80F9A145F0DB681EC5B211
:102490004FF0000914E0B44810F8090040F2A321FD
:1024A00048430AEBC01A2046FFF733FF20B1B9F1C9
:1024B000010F01D1A948824409F101001FFA80F9F6
:1024C000A945E8DB701E40F2A32148430AEBC01A7D
:1024D000C3EB4310C0EB03200AEB001AC7EB071055
:1024E0000AEB800AC244A348C06940F08050A14969
:1024F000C8610846C06940F00060C8619E48006835
:1025000040F480709C49086092481438008840F07C
:1025100010009149A1F804088E49091DA1F800A0F6
:102520004FEA1A408C49A1F818080846B0F8040888
:1025300020F01000A1F8040800BF86481438008875
:1025400010F0200FF9D000208CE770B5034600246E
:1025500009E013F8015B11F8016BB54201D00020CE
:1025600070BD601CC4B29442F3DB0120F8E72DE992
:10257000FE47002406E081480068005D02A9085576
:10258000601CC4B2032CF6DB00240BE004EB440116
:102590007B4A8818032202A9FFF7D7FF00B103E0A6
:1025A000601CC4B20C2CF1DB00BF601CC5B27348C8
:1025B00000680079202805D17048006840793038DB
:1025C000C6B20BE06D48006840796C49096809792A
:1025D00030390A2202FB01003038C6B26748006871
:1025E000C07930384FF47A71484364490968097AF0
:1025F0003039642202FB010060490968497A3039A8
:102600000A2202FB01005D490968897A08443038D2
:1026100087B25C48006840785A49096809783039BF
:1026200002FB0100303800F0FF0A564800680079CC
:1026300054490968C978303902FB0100303800F08C
:10264000FF0950480068C0794E49096889793039D6
:1026500002FB0100303800F0FF085346324629469D
:102660003846CDE90098FFF7EBFEBDE8FE8710B5D0
:10267000002445480088A0F5A041503966D03D4867
:10268000C06940F080503B49C8610846C06940F0CD
:102690000060C8613848006840F4807036490860BE
:1026A0003448006A40F48030324908620846006AC3
:1026B00020F4803008620846006A40F00100086299
:1026C00004E0601CC4B20A20FDF717FF2948006A25
:1026D00010F0020F01D1FA2CF3DBFA2C01DB012000
:1026E00010BD2448006A40F4807022490862084600
:1026F000006A40F40040086200BF164814380088A1
:1027000010F0200FF9D000BF12481438008810F0E4
:10271000080FF9D00F481838008840F001000E4922
:10272000A1F8000800BF0B481438008810F0200FF3
:10273000F9D008481438008840F010000649A1F884
:10274000040800200349103908801FE038E0000029
:10275000DE5700081828004000200040805101008A
:102760001000002020000020EA5700080085E20148
:102770008033E1010010024000700040140000208E
:10278000F657000818000020046C004047F6FF7060
:102790002C49A1F80C08FFF7EAFE2A48B0F8040813
:1027A00020F010002749A1F8040800BF264800883F
:1027B00010F0200FFAD045F250002449088013E0B1
:1027C00000BF2148008810F0080FFAD01E48001FF3
:1027D000008840F001001B49A1F8000800BF1A481A
:1027E000008810F0200FFAD00223032200210846AF
:1027F000FDF7D2FEFFF7AAFD002071E700B51248F1
:10280000008810F0010F01D0FFF7A0FD0E480088EE
:1028100010F0020F06D00C48008820F00200094991
:10282000A1F804080848008840F6FA7108400549F4
:10283000A1F8040800BF0448008810F0200FFAD067
:1028400000BD00000020004004280040046C00404F
:1028500010B53048C06840F4FE702E49C860FDF7DE
:102860005CFF10BD70B50024002500202A490860D7
:102870001AE02948A038006818B1601CC4B20025CD
:1028800008E0681CC5B2032D04DD01202249086060
:10289000002070BD1E20FDF730FE642C04DB0020FC
:1028A0001D4908600120F4E7E3E710B501201B494A
:1028B0000860FFF7D7FF08B1FFF7CAFF10BD10B5DA
:1028C0001448806940F00400124988610846806914
:1028D00040F0010088611248006820F00F001149A3
:1028E000C1F800080846D0F8000840F00800C1F818
:1028F0000008022200210846FDF798FEFFF7B2FF0C
:1029000008B9FDF70AFF0223062219461846FDF70B
:1029100043FE10BD00100240A001214214040140FA
:10292000000801400000014010B500F0BDF810BDE6
:1029300070B50446002600F0CEF800BF2546E1172A
:1029400004EB11610912A02202EB4101C8B200F0B0
:1029500073F900F001F9E11704EB11610912A4EB1E
:102960000121C8B200F068F900F0F6F800F0B3F801
:10297000A12000F061F900F0EFF8002000F08AF9E2
:10298000064600F0C8F8304670BD70B504460D46E6
:1029900000F0A1F800BF2646E11704EB116109120F
:1029A000A02202EB4101C8B200F046F900F0D4F8D1
:1029B000E11704EB11610912A4EB0121C8B200F088
:1029C0003BF900F0C9F8284600F036F900F0C4F8E9
:1029D00000F0A1F80A20FDF790FD70BD2DE9F0414F
:1029E00005460C461646002709E0FA0024FA02F2D2
:1029F000D1B2EA1990B2FFF7C8FF781CC7B2B7424C
:102A0000F3DBBDE8F0812DE9F04104460D460027D7
:102A1000002609E03F026119891B491E88B2FFF7B1
:102A200087FF0744701CC6B2AE42F3DB3846BDE8F0
:102A3000F08110B5FF20FFF77BFF0446552C01D134
:102A4000002010BD5521FF20FFF79FFFFF20FFF75B
:102A50006FFF0446552C01D10020F2E70120F0E77A
:102A600070B504460D46164608E02046621C94B236
:102A7000FFF75EFF05F8010B701E86B2002EF4D141
:102A800070BD70B504460E46154606E03178204606
:102A9000FFF77BFF601C84B2761C2800A5F10101C2
:102AA0008DB2F3D170BD00009348806940F01000F2
:102AB000914988619148406820F47F208F4948609F
:102AC0000846406840F44C3048600846C06840F40E
:102AD000C050C860704710B58848406820F4704006
:102AE000864948600846406840F4405048600120EC
:102AF000834908608349C1F8B0010420FDF718FD3F
:102B000000207F4908600420FDF712FD00207D4968
:102B1000C1F8B00110BD10B57848406820F470408D
:102B2000764948600846406840F4405048600020BC
:102B30007349091D08607349C1F8AC010420FDF711
:102B4000F7FC01206E49091D08606E49C1F8AC010F
:102B50000420FDF7EDFC10BD10B500246748406867
:102B600020F47040654948600846406840F40040E1
:102B70004860012062490860FDF7DAFC01206149E4
:102B8000C1F8B001FDF7D4FC07E0601CC4B2FA2C18
:102B900003DDFFF7C0FF012010BD594880380068F1
:102BA0000028F2D15649091D0860F5E710B500204C
:102BB0005349091D08605148406820F470404F494E
:102BC00048600846406840F44050486000204D4945
:102BD000C1F8AC010220FDF7ABFC01204849091DFA
:102BE00008600220FDF7A4FC00204649C1F8B001AE
:102BF00010BD10B500204249091D08603F484068DB
:102C000020F470403D4948600846406840F4405018
:102C1000486001203B49C1F8AC010220FDF788FC67
:102C200001203749091D08600220FDF781FC0020C2
:102C30003449C1F8B00110BD70B505462F48406851
:102C400020F470402D4948600846406840F44050E8
:102C5000486000202A49091D0860002417E0E8099F
:102C6000274908606806050E0220FDF761FC012077
:102C70002449C1F8B0010220FDF75AFC0020204988
:102C8000091D08600220FDF753FC601CC4B2082C2B
:102C9000E5DB70BD70B5044600251848406820F497
:102CA0007040164948600846406840F4004048605B
:102CB000002617E000201249091D08600220FDF7D8
:102CC00037FC01200F49C1F8B0016806050E0C4819
:102CD0008038006808B1681CC5B20120FDF728FCE7
:102CE000701CC6B2082EE5DB14B9FFF782FF01E0C5
:102CF000FFF75CFF284670BD001002400010014045
:102D0000AC012242000022420246002105E0481C9C
:102D1000C1B2C82901DD002070474848008910F081
:102D2000020FF4D045488281002105E0481CC1B261
:102D3000C82901DD0020EFE74048008910F0010FAD
:102D4000F4D03E488089C0B2E6E700B53C488069CF
:102D500040F004003A4988610846806940F4805098
:102D6000886138480068C0F313003749C1F800088B
:102D700034480068354908433349C1F8000808461B
:102D8000D0F80C0840F0E000C1F80C082B4800888F
:102D90002A4908800846008840F4007008800846E8
:102DA000008840F4807008800846008840F00400E5
:102DB0000880084600880880084600880880084681
:102DC000008808800846008840F0380008800846DF
:102DD000008808800846008840F040000880FF20F6
:102DE000FFF792FF00BD154909884FF6C7721140E1
:102DF000124A118018B911460988118017E001287C
:102E000006D10E49098841F010010C4A11800EE0EC
:102E1000022806D10949098841F01801074A1180A2
:102E200005E00649098841F03801044A1180034948
:102E3000098841F04001014A11807047003001408B
:102E40000010024000080140000001400000B0BB3B
:102E5000002100BF15E010F0800F03D00122FB4BD2
:102E60001A6002E00022F94B1A604206100E00229E
:102E7000F64B0C3B1A600122F54BC3F880214A1C2B
:102E8000D1B20829E7DB704770B50446002600255B
:102E90000020EE490C390860ED49C1F8B401204624
:102EA000FFF7D6FF0620FDF743FB0120E7490C3969
:102EB00008600020E649C1F8800100BF11E0680405
:102EC000050C0020E1490C3908600120E049C1F8F7
:102ED0008001DE488438006808B1681C85B2701C27
:102EE000C6B2102EEBDB2D110120D8492831086025
:102EF000284670BD2DE9F04188B004464FF0000827
:102F0000002506E02046FFF7BFFF2DF81500681CDE
:102F100085B20F2DF6DB002516E0681C86B20FE0A7
:102F20003DF815003DF81610884207DD3DF8157094
:102F30003DF816002DF815002DF81670701C86B29D
:102F40000F2EEDDB681C85B20E2DE6DB4FF000087E
:102F5000052506E03DF8150040441FFA80F8681C7E
:102F600085B20A2DF6DB052098FBF0F087B23846D3
:102F700008B0BDE8F0812DE9F04104460D46B548A2
:102F80000078FFF7B7FF0646B3480078FFF7B2FFB7
:102F90000746642E01DB642F02DA0020BDE8F081D1
:102FA00026802F800120F9E77FB504460D4602A94F
:102FB00003A8FFF7E0FF064616B9002004B070BD75
:102FC000694601A8FFF7D7FF06460EB90020F5E7CE
:102FD000BDF80400BDF80C10884206DCBDF80C10EA
:102FE000BDF80400323081420CDBBDF80C00BDF8A6
:102FF0000410884236DCBDF80410BDF80C003230F5
:1030000081422FDABDF80000BDF80810884206DCC6
:10301000BDF80810BDF80000323081420CDBBDF86D
:103020000800BDF8001088421CDCBDF80010BDF897
:1030300008003230814215DABDF80C10BDF80420CA
:10304000881800EBD071C1F34F012180BDF8081042
:10305000BDF80020881800EBD071C1F34F01298022
:103060000120ABE70020A9E738B17C49096841F0AD
:1030700002017B4AC2F8001406E07849096821F091
:103080000201774AC2F80014704710B500240020EE
:10309000FFF7EAFF002073490872891D881EFFF7B9
:1030A00083FF04E0601CC4B20A20FDF726FA6748DB
:1030B0008838006808B9FA2CF4DD0120FFF7D4FF46
:1030C000FA2C01DB002010BD0120FCE770B504469E
:1030D0000D46A4F10C0188B22B4604F10D022946DD
:1030E000FEF7ACFEA5F10C0081B2193083B2224686
:1030F0002046FEF7A3FE681C81B2601CFDF7EBFEC4
:10310000611E88B2691C89B2FDF7E5FE681E81B2B6
:10311000601CFDF7E0FE6A1E91B2621E90B2FDF7E0
:10312000DAFE062229462046FEF70CFF70BD70B578
:1031300004460D4629462046FDF7CDFE2946601C73
:10314000FDF7C9FE681C81B22046FDF7C4FE681C6D
:1031500081B2601CFDF7BFFE70BD2DE9F041414911
:10316000891D881EFFF720FF80B33E49B1F9140086
:1031700001F012FC06463B49888801F026FC074610
:103180003848C168384601F025FC0546314601F053
:1031900021FA044601F0D4FB32490880B1F9160047
:1031A00001F0FAFB06462F49C88801F00EFC0746DD
:1031B0002C480169384601F00DFC0546314601F006
:1031C00009FA044601F0BCFB26494880BDE8F081BD
:1031D00001202449087202202049143108607047F8
:1031E00070B52049C868204901F0F4FB054601F09C
:1031F0006FFB0446042221462820FFF7EFFB194904
:103200000869194901F0E6FB054601F061FB044637
:10321000042221462C20FFF7E1FB1248B0F91410DC
:1032200002223020FFF7DAFB0E48B0F91610022216
:103230003220FFF7D3FB0B48017E3420FFF7A5FBBC
:103240000A2421463520FFF7A0FB70BD8C012242E5
:10325000000022421C0000201D000020000401404C
:10326000000001402C00002020BCBE4C70B5352071
:10327000FFF75EFB04460A2C40D104212820FFF70B
:10328000C2FB0446204601F087FB0546FF4901F0DA
:103290002DFAFF49C86004212C20FFF7B4FB044637
:1032A000204601F079FB0546F84901F01FFAF8497C
:1032B000086102213020FFF7A6FB00B2F4498882A2
:1032C00002213220FFF79FFB00B2F149C88234206F
:1032D000FFF72EFBEE4908760846007E30B19020BD
:1032E000EC490870D020EC49087005E0D020E9498D
:1032F00008709020E8490870012070BD0020FCE7AC
:1033000010B50446E5A228210846FEF79DFFE9A274
:103310003C212820FEF798FFECA250212820FEF740
:1033200093FFF0A264212820FEF78EFFEDA2642116
:103330002820FEF789FF224678212820FEF784FF07
:1033400010BD2DE9F04F89B0002400BF1F20EB49CC
:1033500008804FF6FF70EA490880FDF7D7FD4FF46B
:103360007840E64908804FF6FF70FDF7CFFD142145
:103370000846FFF7ABFE0020C5490872C860B4E3F9
:10338000C348007A01287ED1FFF77FFE68B1C048AC
:10339000808800B205A921F82400BD48C08800B289
:1033A00001EB84014880601CC4B2012C06D0022CC1
:1033B0000DD0032C15D0042C08D11CE04FF6FF7063
:1033C000FDF7A4FD1421DC20FFF780FE8BE34FF610
:1033D000FF70FDF79BFD4FF496711420FFF776FE0A
:1033E00081E34FF6FF70FDF791FD4FF49671DC20FD
:1033F000FFF76CFE77E3BDF91410BDF91820881AA9
:1034000001D4014600E041420F46BDF91620BDF946
:103410001A10501A01D4014600E0414288467F4309
:1034200008FB08F807EB080000F088FFCDE902016F
:1034300000F0BEFECDE9000100F030FF85B2BDF91D
:103440001C10BDF92020881A01D4014600E0414239
:103450000F46BDF91E20BDF92210501A01D40146B5
:1034600000E0414288467F4308FB08F807EB08006C
:1034700000F064FFCDE9020100F09AFECDE9000101
:1034800000F00CFF00E02FE386B2304601F09DFA19
:103490008146284601F099FA8246494601F026F90C
:1034A0000490049801F06EF8CDE9000195A00CC8D5
:1034B000009800F049FF0DD3049801F063F8CDE9BE
:1034C000020192A00CC8029800F076FF02D30DB161
:1034D000002E64D100244FF6FF70FDF717FD142174
:1034E0000846FFF7F3FD8BA0FFF70AFF10230093B8
:1034F000BDF91420042328214020FEF723FE1023C9
:103500000093BDF91620042328219020FEF71AFE0F
:1035100010230093BDF9182004233C214020FEF71E
:1035200011FE10230093BDF91A2004233C219020A2
:10353000FEF708FE10230093BDF91C200423502140
:103540004020FEF7FFFD10230093BDF91E20042349
:1035500050219020FEF7F6FD10230093BDF92020A6
:10356000042364214020FEF7EDFD10230093BDF9F4
:103570002220042364219020FEF7E4FD684904988A
:1035800001F028FA824601F0DBF98146102300930E
:10359000032302468C212820FEF7D4FDA5E2BDF9C5
:1035A0001410BDF91C20881A01D4014600E04142E4
:1035B0000F46BDF91620BDF91E10501A01D4014660
:1035C00000E0414288467F4308FB08F807EB08000B
:1035D00000F0B4FECDE9020100F0EAFDCDE9000102
:1035E00000F05CFE85B2BDF91810BDF92020881AE4
:1035F00001D4014600E041420F46BDF91A20BDF951
:103600002210501A01D4014600E0414288467F430F
:1036100008FB08F807EB080000F090FECDE9020176
:1036200000F0C6FDCDE9000100F038FE86B230465C
:1036300001F0CBF98146284601F0C7F98246494698
:1036400001F054F80490049800F09CFFCDE90001CB
:103650002CA00CC8009800F077FE0AD3049800F064
:1036600091FFCDE9020129A00CC8029800F0A4FE48
:103670007ED200244FF6FF70FDF748FC1421084667
:10368000FFF724FD27A0FFF73BFE51E020BCBE4C16
:103690002C0000201C0000201D00002078313A2062
:1036A00020202020202079313A2020202020202096
:1036B0000000000078323A2020202020202079329B
:1036C0003A202020202020200000000078333A20DB
:1036D00020202020202079333A2020202020202064
:1036E0000000000078343A20202020202020793467
:1036F0003A20202020202020000000000A00002086
:103700000C000020666666666666EE3FCDCCCCCCCB
:10371000CCCCF03F766572206661632069733A0015
:103720000000C842686F72206661632069733A00C6
:1037300010230093BDF91420042328214020FEF714
:1037400001FD10230093BDF91620042328219020A9
:10375000FEF7F8FC10230093BDF9182004233C2148
:103760004020FEF7EFFC10230093BDF91A2000E083
:1037700039E004233C219020FEF7E4FC1023009361
:10378000BDF91C20042350214020FEF7DBFC102350
:103790000093BDF91E20042350219020FEF7D2FC97
:1037A00010230093BDF92020042364214020FEF75C
:1037B000C9FC10230093BDF922200423642190202A
:1037C000FEF7C0FCFC49049801F004F9824601F0C0
:1037D000B7F8814610230093032302468C2128204A
:1037E000FEF7B0FC81E1BDF91810BDF91C20881A64
:1037F00001D4014600E041420F46BDF91A20BDF94F
:103800001E10501A01D4014600E0414288467F4311
:1038100008FB08F807EB080000F090FDCDE9020175
:1038200000F0C6FCCDE9000100F038FD85B2BDF91D
:103830001410BDF92020881A01D4014600E041424D
:103840000F46BDF91620BDF92210501A01D40146C9
:1038500000E0414288467F4308FB08F807EB080078
:1038600000F06CFDCDE9020100F0A2FCCDE9000101
:1038700000F014FD86B2304601F0A7F881462846D4
:1038800001F0A3F88246494600F030FF0490049806
:1038900000F078FECDE90001AFF298100CC8009856
:1038A00000F052FD0BD3049800F06CFECDE902014C
:1038B000AFF2A8100CC8029800F07EFD64D200247C
:1038C0004FF6FF70FDF722FB14210846FFF7FEFBC1
:1038D000BAA0FFF715FD10230093BDF914200423AF
:1038E00028214020FEF72EFC10230093BDF916205E
:1038F000042328219020FEF725FC10230093BDF916
:10390000182004233C214020FEF71CFC10230093C8
:10391000BDF91A2004233C219020FEF713FC10234C
:103920000093BDF91C20042350214020FEF70AFC1F
:1039300010230093BDF91E20042350219020FEF790
:1039400001FC10230093BDF92020042364214020B2
:10395000FEF7F8FB10230093BDF922200423642115
:103960009020FEF7EFFB9449049801F033F882466B
:1039700000F0E6FF814610230093032302468C21CA
:103980002820FEF7DFFBB0E0BDF91810BDF91420C8
:10399000881A01F001F8814601468B4800F0A6FE26
:1039A0008A49C860BDF91810BDF91420881800F0C4
:1039B000F3FF03908548C168039801F00BF8834634
:1039C000834901F0B0F882464FF0804100F08EFE4E
:1039D000814600F07DFF00B27C498882BDF91E104F
:1039E000BDF91620881A00F0D7FF814601467948B4
:1039F00000F07CFE75490861BDF91E10BDF9162066
:103A0000881800F0C9FF039070480169039800F01E
:103A1000E1FF8346704901F086F882464FF080410D
:103A200000F064FE814600F053FF00B26749C8828F
:103A3000C86800F04DFFB0F1000A01DB504601E01C
:103A4000CAF1000002280CDC6049086900F040FF60
:103A5000B0F1000901DB484601E0C9F1000002288D
:103A60002ADD00244FF6FF70FDF750FA14210846B6
:103A7000FFF72CFB59A26E212320FEF7E5FB5348EC
:103A8000007E08B9012000E0002050490876084671
:103A9000007E30B1902056490870D02055490870FA
:103AA00005E0D020524908709020524908704FF428
:103AB000FA70FCF722FD18E01F204F4908804FF6EE
:103AC000FF70FDF723FA4DA26E212320FEF7BCFB09
:103AD0004FF4FA70FCF711FD4FF6FF70FDF716FA80
:103AE00009B0BDE8F08F00BF00BF49E410B54948F8
:103AF000806940F01000474988610846806940F0BD
:103B000001008861444800686FF30F004249086073
:103B10000846006843F6830108433F4908600846A9
:103B2000406820F4700048600846406840F4401047
:103B300048600846C06842F20F0108433649C86031
:103B40002249891D881EFFF716FA02230722002149
:103B50001846FCF721FD2F48806940F001002D49EF
:103B600088612E48806840F020002C4988602C48ED
:103B7000006840F00200C1F800040846D0F80404D0
:103B800040F00200C1F804040846D0F80C0440F0EC
:103B90000200C1F80C04FEF7C7FEFFF767FB00B197
:103BA00010BD4FF6FF70FDF7B1F9FFF7CAFBFFF745
:103BB00017FBFFF75BFBF3E70000C8426469612075
:103BC0006661632069733A00000048432C000020BE
:103BD0000000704300008C430000A0435450204E6E
:103BE00065656420726561646A7573742100000004
:103BF0001C0000201D0000200A000020546F756387
:103C0000682053637265656E2041646A7573742021
:103C10004F4B210000100240001001400000014005
:103C20000004014010B5AF48806940F00400AD4980
:103C300088610846806940F010008861AA480068E1
:103C4000AA490840AA49C1F80008A7480068A9493C
:103C50000843A749C1F800080846D0F80C0840F00E
:103C60001C00C1F80C08A448006820F47F00A24999
:103C700008600846006840F4030008600846C06811
:103C800040F03000C860FFF760F800209B490860F2
:103C900001209B49C1F8900110BD2DE9F041044677
:103CA0000D4616460020974908602046FFF72CF87D
:103CB00007464FF0000808E0FF20FFF725F805F859
:103CC000080008F1010000F0FF08B045F4DB012016
:103CD0008C4908603846BDE8F0812DE9F041044682
:103CE0000D4616460020874908602046FFF70CF86D
:103CF00007464FF0000807E015F8010BFFF704F83E
:103D000008F1010000F0FF08B045F5DB01207D4916
:103D100008603846BDE8F0811CB57BA103C9CDE938
:103D200000010120FFF75FF8052269463020FFF708
:103D3000D4FF052269461020FFF7AFFF002406E0FC
:103D40001DF80400A52800D003E0601CC4B2052CB7
:103D5000F6DB00BF052C01D001201CBD0020FCE7D4
:103D600070B504460D460020664908602046FEF7FF
:103D7000CBFF06462846FEF7C7FF01206049C1F881
:103D80009001304670BD70B5044600205D49086062
:103D90002046FEF7B9FFFF20FEF7B6FF05460120DB
:103DA0005749C1F89001284670BD70B505460120FD
:103DB000FFF719F800205149086020222946A02069
:103DC000FFF78BFF01205249C1F8900100BF4D4819
:103DD0007C3800680028FAD10720FFF7D4FF04469A
:103DE00021462720FFF7BCFF14F0100F05D0FF215C
:103DF000E120FFF7B5FF102070BD14F0200F01D0B7
:103E00002020F9E7FF20F7E770B504460120FEF710
:103E1000EAFF0720FFF7B7FF054629462720FFF7EF
:103E20009FFF15F0400F0AD0202221466120FFF7A6
:103E300034FFFF21E220FFF793FF002070BD012037
:103E4000FCE710B500202D490860052231492A20E1
:103E5000FFF743FF01212120FFF782FF01212220EC
:103E6000FFF77EFF28212520FFF77AFF2021312050
:103E7000FFF776FF0F212620FFF772FF0F2120208A
:103E8000FFF76EFF01202249C1F8900110BD10B567
:103E900000201A49086005221F493020FFF71DFF46
:103EA00005221C492A20FFF718FF01212120FFF7D6
:103EB00057FF01212220FFF753FF1A212420FFF78B
:103EC0004FFF28212520FFF74BFF0F212620FFF76A
:103ED00047FF0E212020FFF743FF01200C49C1F8C6
:103EE000900110BD0010024000080140FF00F0FFEB
:103EF0000000014000330300001001409001214206
:103F00000000224290012242A5A5A5A5A50000001F
:103F1000000021421F5800081A580008704700008E
:103F20000FB4054A054910B503AB7944029800F077
:103F3000D8F810BC5DF814FB0400002025C9FFFF71
:103F40002DE9F04104460E4600202BE0E1682046B2
:103F5000884748B3252802D0D4E901211FE0E16851
:103F600020460027884705001ED0A5F141001928EA
:103F700002D820354FF40067324629462046276094
:103F8000FCF7EEF840B1012801D1361DDEE7F61D41
:103F900026F007060836D9E7D4E9012128469047DC
:103FA000206A401C2062D1E7206ABDE8F081000051
:103FB00070B504460D4621461068AFF300802168B5
:103FC000090502D5104A7A4402E00F4A7A440E32BB
:103FD000002104F1240306E000F00F064FEA101060
:103FE000965D5E54491C0028F6D120680023000726
:103FF00004D5702D02D009B1113202232046BDE84C
:10400000704000F012B800005A1800007047704766
:104010007047704710B500F077F8006810BD10B514
:10402000044600F071F8046010BD2DE9F0470D461C
:1040300004469246994600F124080168880604D592
:10404000E06921F01001216000E001200027A84272
:1040500000DD471BA1697A1902EB0900081AA0616B
:104060002068C00602D42046AFF30080002608E096
:10407000D4E901211AF806009047206A401C761CFA
:1040800020624E45F4DB2068C0060AD52046AFF317
:10409000008006E0D4E9012130209047206A401CCE
:1040A0002062381EA7F10107F4DC07E0D4E9012102
:1040B00018F805009047206A401C2062281EA5F1D0
:1040C0000105F3DC2046AFF30080216802200906D9
:1040D00000D40120BDE8F08701694A1C026108781C
:1040E000704710B50C46194690B0CDE90242002247
:1040F0000692044A7A44CDE9042001A8FFF720FF84
:1041000010B010BDE1FFFFFF01487047704700008D
:104110004800002000487047480000207546FFF71F
:10412000F9FFAE4605006946534620F00700854674
:1041300018B020B5FCF73AF8BDE820404FF0000673
:104140004FF000074FF000084FF0000B21F007017F
:10415000AC46ACE8C009ACE8C009ACE8C009ACE8C2
:10416000C0098D4670470446AFF300802046FCF737
:104170000BF8000030B504460D460C480088A0F549
:104180000941893908D121464E20FCF7D1FD294645
:104190004F20FCF7CDFD07E021462020FCF7C8FDAD
:1041A00029462120FCF7C4FD30BD00000E00002090
:1041B00070B504000D4601D0012200E000220A4340
:1041C0000B4B22F000429A1AD20F0AD109A20CCA54
:1041D00000F0BAF805D20120FFF721FF07A103C9BB
:1041E00070BD29462046BDE8704000F029B90000A6
:1041F0000000F07F0000000000000000010000004F
:104200000000F87F02494FF0000000F06CBD000094
:104210000000F87F02494FF0000000F064BD00008C
:104220000000F87F00B54FF4001E1EEB410F08BFE1
:10423000002898BF1EEB430F08BF002A26D85DF860
:1042400004EBAFF3008051EA030C06D4994208BF97
:10425000904210D6EFF3008070478B4208BF824235
:10426000EFF3008020F0104038BF40F0004080F3B2
:10427000008878BF70474FF0010C38BFBCF1020FC7
:1042800068BFBCF1000FEFF3008070475DF804EBEE
:104290001CF4502F3FF4B6AF00F057BD4FEAC123D6
:1042A00003B40A1543EA505318BF43F000430CD43B
:1042B000A2F56072D2F19E0211DBFF2ACCBF002171
:1042C00023FA02F1084602B0704701F1804212F56C
:1042D000801F80F204804FF0000002B0704703BCE2
:1042E000DFF828C0012841EB010313F5001F88BF48
:1042F0004CF4803C3FF68EAF3CBF6FEAE1707047F4
:10430000AFF300806FEAE17070470000E80002043C
:1043100010F0004314BF4142014643F08043B1FA1C
:1043200081FC03F1F87311FA0CF1A3EB0C534FEA83
:10433000415008BF704703EBE12170474FF08043C5
:104340000146FFF7ECBF000051EA030C17D41CF53F
:10435000801F58BFBCF5801F00F10680994218BF2E
:10436000704708BF9042704707D711F5801F58BFAC
:1043700013F5801F19D499427047894270471CF584
:10438000801F08D5BCF5801FF7D58B4218BF70473A
:1043900008BF824270474FF4001C1CEB410F38BF2E
:1043A0001CEB430F01D28B427047DFF808C0FFF7C8
:1043B00039BF00001900160453EA010C17D41CF58C
:1043C000801F58BFBCF5801F00F106808B4218BFCC
:1043D000704708BF8242704707D713F5801F58BF48
:1043E00011F5801F19D48B4270479B4270471CF512
:1043F000801F08D5BCF5801FF7D5994218BF7047BC
:1044000008BF904270474FF4001C1CEB430F38BFAD
:104410001CEB410F01D29942704783EA010182EA05
:10442000000081EA030380EA0202DFF810C083EA99
:10443000010182EA0000FFF7F5BE00001900160432
:104440004FF0E04C4CF07F6C70B511EA0C0F00F0AF
:1044500078803CEA010E00F07D8011F0004F40F0C2
:1044600087804FEA115C21EA0C5141F480110CF174
:10447000FD0C5FEA5C0C0CF5C07C02D3400041EB04
:1044800001014FF000034FF080424FEA812141EAE1
:1044900090514FEA8020A1F180414FF0805E8C1A4C
:1044A00022BFB4EB0E04214602EB4E02400041EB6A
:1044B00001015FEA5E0EF2D171EB020407D3B0F1A5
:1044C000004574F1000422BF21462846521C4000DA
:1044D00041EB01014FF0804EC51A71EB020408D385
:1044E000B5EB0E0574F1000422BF2146284603EB0C
:1044F0004E03400041EB01014FEA5E0EBEF1800F1A
:10450000EAD151EA000418BF0224980A4FEA922126
:104510005FEA340440EA825001EB0C5100D170BDD7
:10452000640050F10000244241F1000108BF20F076
:10453000010070BDDEF5800E50F1000041F1000178
:1045400070BD50EA013C00D170BD01F000414FF058
:10455000000070BDBDE8704050EA013CDFF81CC0AF
:104560007FF458AEAFF30080094258BF704701E0B6
:10457000BDE870404FF0000001497047170000048B
:104580000000F87F00F5000C1CF0FE4F09D0C110B0
:104590004FEA407001F1605158BF7047A1F1E0410E
:1045A00070471CF4000F08D00146400008BF704758
:1045B0004FF000004FEA30017047DFF814C04202AC
:1045C00040F08E80AFF3008040F4E0011046704769
:1045D0001800000490EA010F48BF81F0004100F18B
:1045E000B482421A3CBF801A89184FEAD0524FF069
:1045F0007F4C1CEA410FA2EBD15318BF9CEA026F1B
:1046000000F040804FF0004C4CEA00204CEA0121C1
:1046100021FA03FC10EB0C0C23D202F1FF325FEA0B
:104620001C2040EBC25038BF70471CF07F0F4FEA90
:10463000400C18BFBCF17F4F38BF7047C3F1200357
:10464000994008BF20F00100BCF17F4F38BF704790
:10465000A0F1C0404FF0FF0141EAD0514FEAC150F4
:1046600070474FEA3C00000A40EBC25028BF1CF0E4
:10467000FF0F4FEA400CE1D018BFBCF17F4F38BFAD
:104680007047E5E79CEA026F05D010EA5C0F08BFAF
:1046900000F000407047BCEB410F4FEA400228BFDA
:1046A0009445DFF828C0C0F01580AFF30080B2EB6E
:1046B000410F05D012F1807F08BF70470846704750
:1046C00090EA010F58BF704701487047010000048D
:1046D0000000C07F014800F006BB00000000C07F62
:1046E000014800F000BB00000000C07F4FF47F0CC9
:1046F0001CEAD0121EBF1CEAD11392EA0C0F93EAF7
:104700000C0F00F0A58090EA010F48BF42F48072C0
:1047100040F4000C41F400002CF07F4120F07F4079
:1047200000B58142A2EB03020FF2401CACEB504EED
:10473000C0F100009EF800E04FEA4E0E00FB0EFCB8
:1047400038BF49004FEA2C1C02F5FA020CFB0EF3AD
:104750004FEACE1E4FEA112C4FEAC1210EEB635EE9
:104760000EFB0CFC4FEA1C5300FB03114FEA112C0B
:104770004FEA01310EFB0CFC02F4807E42EB224238
:104780004FEADC4C00FB0C11C14228BF09184CEB6E
:104790000333012924BF4EF0020E4EF0804E10EB81
:1047A000410F24BF4EF0010E4EF0804E08BF4EF078
:1047B000040E4EF008015DF804EB43EBC25018BF45
:1047C000B2F57C0F38BF704741EAC07108BF20F0D6
:1047D0000100B2F57C0F38BF704729D512F0F00FF9
:1047E0001CBF00F1C04000F0004070470081828390
:1047F0008485868788898B8C8D8E8F9192939596F0
:1048000097999A9C9D9FA0A2A3A5A7A8AAACAEB079
:10481000B2B3B5B7B9BCBEC0C2C5C7C9CCCED1D47E
:10482000D7D9DCDFE2E6E9ECF0F3F7FAFE000000AE
:104830004FEA400C0CF1807CBCF17E4F28BF7047E2
:10484000B0F1C0404FF07F404CBF4010400870476F
:1048500090EA010F0CEAD11348BF42F4807262451E
:1048600038BF634507D213F47F0F23D080EA0100DD
:1048700000F0004070474FF0807C1CEB400F98BF69
:104880001CEB410FDFF840C03FF624AFAFF30080D0
:104890004FF0807C1CEB400F02BF1CEB410F0B481C
:1048A00070471CEB410F0CBF002020F0004040EA95
:1048B000C250704712F47F0F04BF0448704742F0A3
:1048C000FF004FEAC0507047040000040000C07FA2
:1048D000C2154FEA002318BF43F0004305D4D2F1BC
:1048E0009E0213D923FA02F07047B0F14F4F0DD852
:1048F00012F0FF0208BF23F000434FF00000D2F196
:104900009E0223FA02F1A0EB01007047DFF82CC0F1
:104910004FEA4001B1F17F4F88BF4CF4803C3FF635
:10492000DFAE1EBF6FEAE07080F000407047AFF36B
:1049300000806FEAE07080F0004070474800020499
:10494000C2154FEA002318BF43F0004305D4D2F14B
:104950009E020AD323FA02F070474FEA4001B1F1F8
:10496000FE4F02D24FF000007047DFF828C04FEA38
:104970004001B1F17F4F88BF4CF4803C3FF6B0AEB0
:104980001CBF6FEAE0707047AFF300806FEAE07021
:10499000704700006800020410F0004218BF404257
:1049A00042F08042B0FA80F18840A2EBC15202F19D
:1049B000786208BF7047410642EB202018BF5FF0C5
:1049C000806C28BF20F0010070474FF08042FFF755
:1049D000E9BF00004FF47F0C1CEAD0121EBF1CEA96
:1049E000D11392EA0C0F93EA0C0F00F04A8090EA80
:1049F000010F48BF42F480724FF0004C4CEA002097
:104A00004CEA01211A44A0FB01C3A2F50002BCF14B
:104A1000000F18BF43F0010302F4807CB3F1004F94
:104A200038BF5B0042EB2242180A40EBC25028BF5D
:104A300013F07F0F18BFB2F57C0F38BF704708BF67
:104A400020F00100B2F57C0F38BF70470BD582F023
:104A5000FF0212F5803FC8BF704700F1C040D8BFC9
:104A600000F00040704700F5000C5FEA4C0C48BFB6
:104A70007047B0F1C0404FF07F404CBF401040083D
:104A8000704790EA010F0CEAD11348BF42F48072DC
:104A9000624538BF634504D280EA010000F000405F
:104AA00070474FF0807C1CEB400F98BF1CEB410F10
:104AB0004FF0030C4CF0806C3FF60CAEAFF300806F
:104AC00012F47F0F1FBF13F47F0F42F0FF02D005D7
:104AD00070470148704700000000C07F10B412F416
:104AE0007F0F4FEA00204FEA012110D1B0FA80F485
:104AF00000FA04F0A2EB044213F47F0F02F58032B7
:104B000018BF41F0004100D010BC18BF604740F012
:104B10000040B1FA81F401FA04F1A3EB044310BCA4
:104B200003F58033604780F0004090EA010F7FF585
:104B300058AD81F0004100F008B8000090EA010F84
:104B400048BF81F000413FF54CAD421A3EBF82F0B4
:104B50000042801A89184FEAD0524FF07F4C1CEA6D
:104B6000410FA2EBD15318BF9CEA026F4FD04FF018
:104B7000004C4CEA00204CEA012121FA03FCB0EB86
:104B80000C0C0FD412F0FE0F18BF5FEA4C001DD5BD
:104B9000001240EBC25038BF70471CF03F0F18BFE7
:104BA00070470BE0A2F101025FEA1C2040EBC2500B
:104BB00038BF70471CF07F0F18BF7047C3F1200348
:104BC000994014BF401E20F0010070474FEA1223A5
:104BD00016D0004204BF002070474FEA9000B0FAA0
:104BE00080FCA2EB0C02CCF1280C60FA0CF093EAEA
:104BF000122F04BF00EBC25070474FEAC3707047DA
:104C00005FEADC1008BF70474FEAC37070479CEA48
:104C1000026F04D010EA5C0F08BF00207047BCEBA5
:104C2000410F4FEA400228BF9445DFF82CC0FFF443
:104C300051ADAFF30080B2EB410F06D012F1807F8F
:104C400008BF704781F00040704790EA010F48BFED
:104C50007047024870470000020000040000C07F57
:104C600000F0004343EAD05323F48073C3F1C1033F
:104C700023F0004117291FD8C3F1200310FA03F1D4
:104C8000C3F1200320F07F4040F4000020FA03F03D
:104C900003F0004340EA03000DD00B46590009D34E
:104CA00018BF401C06D17FEAE27398BF401C38BF92
:104CB00020F0010070477047182903EB912318BFBB
:104CC0006FF00041013168BF03F0004009D6400297
:104CD00003F0004000F1010004BF12F0004F20F08B
:104CE0000100704770470CF00F03092B08BF082024
:104CF00000F02B800A2B0BD0082B18BF704708BF81
:104D00001CF0400F0AD04FF000004FF00001704738
:104D10001CF0400F18BF4FF0004070471CF0100F00
:104D200008D020F0704300F07F4242EAD3014FEAFE
:104D30004370704700F0604021F07F4242EA000279
:104D400001F07F4040EA727070471CF4801F11D060
:104D50001CF4E02F03D06FEACC31490070474FF0CC
:104D60004050EFF3008222F0704242EA000282F3E8
:104D7000008870474FF000007047000000000000FE
:104D80000000000000000000040404040404000407
:104D9000000000140A0A00000000000000000000EB
:104DA00014143F140A3F0A0A000000041E150506E9
:104DB0000C14150F0400000012150D0A142C2A12F1
:104DC00000000000040A0A1E151509360000000242
:104DD0000201000000000000000000201008080888
:104DE0000808081020000002040808080808080441
:104DF000020000000004150E0E1504000000000063
:104E00000404041F0404040000000000000000006B
:104E100000000002020100000000001F000000006E
:104E20000000000000000000000000020000001070
:104E30000808080404020202010000000E1111110A
:104E40001111110E00000000040604040404040EF5
:104E5000000000000E1111080402011F00000000F4
:104E60000E11100C1010110E00000000080C0A0AA0
:104E7000091E0818000000001F01010F1010110E7C
:104E8000000000000E09010F1111110E00000000BA
:104E90001F09080404040404000000000E11110E90
:104EA0001111110E000000000E1111111E10120E32
:104EB00000000000000004000000000400000000EA
:104EC0000000000400000004040000201008040298
:104ED000040810200000000000001F00001F000058
:104EE0000000000204081020100804020000000066
:104EF0000E11110804040004000000000E11191521
:104F0000151D011E0000000004040C0A0A1E1233C5
:104F1000000000000F12120E1212120F000000000B
:104F20001E1101010101110E000000000F121212EA
:104F30001212120F000000001F120A0E0A02121FA6
:104F4000000000001F120A0E0A0202070000000003
:104F50001C1201013911120C000000003312121E44
:104F600012121233000000001F0404040404041F82
:104F7000000000003E0808080808080907000000B3
:104F800037120A060A0A123700000000070202025E
:104F90000202223F000000001B1B1B1B15151515EC
:104FA000000000003B1216161A1A1217000000002B
:104FB0000E1111111111110E000000000F12120E2E
:104FC00002020207000000000E1111111117190E44
:104FD000180000000F12120E0A1212370000000013
:104FE0001E1101060810110F000000001F15040417
:104FF0000404040E00000000331212121212120CEC
:10500000000000003312120A0A0C04040000000021
:105010001515150E0A0A0A0A000000001B0A0A04E8
:10502000040A0A1B000000001B0A0A040404040E00
:10503000000000001F0908040402121F0000001CE9
:1050400004040404040404041C0000020202040416
:10505000080808100000000E0808080808080808DA
:105060000E0000040A000000000000000000000024
:105070000000000000000000003F000400000000ED
:1050800000000000000000000000000C121C123C98
:10509000000000000302020E1212120E00000000B7
:1050A0000000001C1202021C000000001810101C5E
:1050B0001212123C000000000000000C121E021C24
:1050C000000000003804041E0404041E0000000058
:1050D0000000003C120C021E221C00000302020E03
:1050E0001212123700000000040000060404040E2F
:1050F000000000000800000C08080808080700006D
:105100000302023A0A0E12370000000007040404EA
:105110000404041F000000000000000F1515151501
:10512000000000000000000F121212370000000003
:105130000000000C1212120C000000000000000F12
:105140001212120E020700000000001C1212121CA4
:10515000103800000000001B0602020700000000DB
:105160000000001E020C101E000000000004040ECF
:1051700004040418000000000000001B1212123C7E
:105180000000000000000037120A0C0400000000BC
:1051900000000015150E0A0A000000000000001BA8
:1051A0000A040A1B0000000000000037120A0C0469
:1051B000040300000000001E0804041E0000001884
:1051C000080808040808080818000808080808085B
:1051D0000808080808080006040404080404040475
:1051E000060002251800000000000000000000007A
:1051F00000000000000000000000000000000000AF
:1052000000080808080808080000181800000048EE
:105210006C241200000000000000000000000000EC
:10522000002424247F1212127F12121200000000A8
:10523000081C2A2A0A0C1828282A2A1C08080000F8
:105240000022251515152A58545454220000000038
:10525000000C1212120A76252911916E0000000628
:1052600006040300000000000000000000000040F1
:10527000201010080808080808101020400000023C
:105280000408081010101010100808040200000094
:10529000000008086B1C1C6B0808000000000000E0
:1052A0000000080808087F0808080800000000003F
:1052B00000000000000000000000060604030000DB
:1052C000000000000000FE000000000000000000E0
:1052D00000000000000000000000060600000000C2
:1052E0008040402020101008080404020200000042
:1052F0000018244242424242424224180000000068
:1053000000080E08080808080808083E0000000009
:10531000003C4242422020100804427E000000006F
:10532000003C4242201820404042221C0000000065
:1053300000203028242422227E2020780000000033
:10534000007E0202021A26404042221C0000000099
:1053500000382402021A26424242241800000000AB
:10536000007E22221010080808080808000000002B
:10537000003C4242422418244242423C00000000C9
:1053800000182442424264584040241C000000009F
:1053900000000000181800000000181800000000AD
:1053A00000000000000800000000000808040000E1
:1053B00000402010080402040810204000000000F3
:1053C000000000007F0000007F00000000000000DF
:1053D0000002040810204020100804020000000011
:1053E000003C424246402010100018180000000007
:1053F000001C225A555555552D42221C0000000014
:10540000000808181414243C224242E7000000005F
:10541000001F2222221E22424242221F00000000C0
:10542000007C4242010101010142221C00000000F7
:10543000001F2242424242424242221F000000001C
:10544000003F4212121E12120242423F00000000B0
:10545000003F4212121E1212020202070000000058
:10546000003C2222010101712122221C00000000C7
:1054700000E7424242427E42424242E700000000D0
:10548000003E0808080808080808083E0000000058
:10549000007C10101010101010101010110F0000D0
:1054A000007722120A0E0A12122222770000000050
:1054B00000070202020202020202427F0000000014
:1054C0000077363636362A2A2A2A2A6B0000000050
:1054D00000E346464A4A52525262624700000000C8
:1054E000001C2241414141414141221C0000000079
:1054F000003F424242423E02020202070000000018
:10550000001C2241414141414D53321C60000000CA
:10551000003F4242423E1212222242C700000000D7
:10552000007C4242020418204042423E000000003B
:10553000007F4908080808080808081C0000000047
:1055400000E74242424242424242423C00000000E6
:1055500000E7424222242414141808080000000026
:10556000006B494949495555362222220000000066
:1055700000E7422424181818242442E70000000001
:1055800000772222141408080808081C00000000F4
:10559000007E2120101008040442423F00000078E1
:1055A0000808080808080808080808087800000023
:1055B0000202040408080810102020204040001EA9
:1055C0001010101010101010101010101E000038C5
:1055D0004400000000000000000000000000000087
:1055E00000000000000000000000000000FF0006B6
:1055F00008000000000000000000000000000000A3
:1056000000000000003C4278444242FC00000000E0
:1056100000030202021A26424242261A000000003B
:10562000000000000038440202024438000000007C
:105630000060404040784442424264D8000000008C
:1056400000000000003C427E0202423C00000000DC
:1056500000F08808087E08080808083E00000000DE
:1056600000000000007C22221C023C42423C000060
:1056700000030202023A4642424242E700000000B2
:10568000000C0C00000E08080808083E000000008E
:10569000003030000038202020202020221E000072
:1056A000000302020272120A1612227700000000A2
:1056B000000E0808080808080808083E0000000056
:1056C00000000000007F9292929292B700000000CA
:1056D00000000000003B4642424242E7000000005A
:1056E00000000000003C42424242423C00000000F8
:1056F00000000000001B26424242221E020700005A
:1057000000000000007844424242447840E000003B
:105710000000000000774C040404041F0000000097
:1057200000000000007C42023C40423E00000000BD
:1057300000000008083E08080808083000000000C3
:105740000000000000634242424262DC00000000B0
:105750000000000000E742242414080800000000B4
:105760000000000000EB49495555222200000000CE
:1057700000000000007624181818246E00000000B5
:105780000000000000E74224241418080807000065
:1057900000000000007E22100808447E000000C0C7
:1057A000202020202010202020202020C0001010A9
:1057B0001010101010101010101010101010000603
:1057C00008080808081008080808080806000C322D
:1057D000C200000000000000000000000000000304
:1057E000030601040602050003051F1C1F1E1F1EE1
:1057F0001F1F1E1F1E1F4A616E4665624D6172416A
:1058000070724D61794A756E4A756C417567536562
:10581000704F63744E6F76446563344310100134E7
:105820004310100130313233343536373839414284
:1058300043444546403058003031323334353637F2
:105840003839616263646566403078006C580008DE
:105850000000002020000000280100088C580008EB
:105860002000002088020000440100080000000021
:1058700000000000017F0000FFFF000000000000AA
:0C5880000000000000000000D0900000BC
:04000005080000ED02
:00000001FF
