:050C0A0034431010014D
:10000300E4FEEF30E704D2958002C295EF25E0FFCE
:0E001300D297309603430701C2970EBE08E451
:0100210022BC
:100B86007F027E00120AD0C292D294C297D29322DA
:0C0BC000C294120003E4FF120003D29460
:010BCC002206
:090AEE007D017F21120AF77F222D
:100AF700C294120003AC07AF05120003D294AF04EF
:010B070022CB
:0609D8008B098A0A890B5D
:1009DE00C294120003AD07E4FCECC3950C5017E46F
:1009EE00FF120003AB09AA0AA90B8C82758300EFD4
:0A09FE001207830C80E3D294AF05CA
:010A080022CB
:0B08F4007BFF7A0C790A750C057F2A47
:0608FF008B098A0A890B37
:10090500C294120003AD07E4FCECC3950C5018AB80
:1009150009050BE50BAA0A7002050A14F912073D31
:0B092500FF1200030C80E2D294AF052B
:0109300022A4
:100865008B1C8A1D891EC2927BFF7A0C790A750C36
:10087500057F301208FF1208F4AB1CAA1DA91E75CE
:100885000C047FA01208FF120AEE7D0A7F24120ACB
:10089500F77D407F25120AF77D077F26120AF77D2F
:0F08A5000E7F20120AF7D2927F057E00020AD042
:100A0900C2921208F4120AEE7D407F25120AF77D80
:100A1900047F31120AF77D077F26120AF77D0F7FBF
:0D0A290020120AF7D2927F057E00020AD04B
:100B63007F07120BC08F203005077DFF7F27120AF6
:020B7300F72267
:100931007F07120BC08F20300630C2927B007A00F5
:100941007917750C047F611209D87B007A00791739
:100951007D417F0212068E12096C7DFF7F27120AEC
:0B096100F7C2947FE2120003D2942240
:0D0B9600EFD3940040077E6EDEFE1F80F35B
:010BA300222F
:100AD000D3EF9400EE940040147D6E7C00ED1D7009
:0D0AE000011CED4C70F7EF1F70E61E80E367
:010AED0022E6
:0A0BF200B5B1C7B0CEC2B6C83A00D4
:100A8A00E4F51B120A36120B3A120B08120B867B7C
:100A9A00FF7A0B79F27D0A7F0212068E120A091278
:040AAA00093180F896
:100B210031322E330033322E360035362E37003334
:090B3100362E390038392E34004B
:100B0800E4F587758920758DFD758BFDC29FD29E92
:090B1800D2AFD2ACD28ED29C22E5
:0C0BDA00C2AC8F993099FDC299D2AC22B8
:100B500012073DFF600C120BDA740129F9E43AFA2E
:030B600080EE2202
:03002300020BCD00
:0D0BCD00C2AC309805C29885991FD2AC3299
:10096C00E51F6453702FF51FFB7A007917120B509B
:10097C007BFF7A0B7921120B507A0B7926120B50D4
:10098C007A0B792B120B507A0B7930120B507A0BA5
:06099C007935120B502218
:10002600B5B10020A4A8A0BFA0B0A8A6F0200004E7
:1000360004040404040404040F00C7B004F4545573
:1000460056F404F60504F604000F0101090F000337
:1000560004080700CEC288D12280BF95959595BF2A
:100066008000000F080F080F08080F080F08B6C811
:100076000000FE0A8ABEABAABE0A0A000C020908E4
:10008600040502050408080800000000000000003E
:100096000000000000000000000038FCFC380000F2
:1000A6000000000D0D000000000E1E00001E0E00D8
:1000B600000000000000000020F8F820F8F82000FA
:1000C600020F0F020F0F0200387C444747CC9800FE
:1000D6000306041C1C07030030300080C06030009B
:1000E6000C060301000C0C0080D87CE4BCD8400050
:1000F600070F0808070F080000101E0E000000007A
:1001060000000000000000000000F0F80C040000F1
:10011600000003070C0800000000040CF8F00000C3
:100126000000080C0703000080A0E0C0C0E0A0802B
:100136000002030101030200008080E0E0808000ED
:1001460000000003030000000000000000000000A3
:100156000000101E0E0000008080808080808000DD
:100166000000000000000000000000000000000089
:100176000000000C0C00000000000080C060300091
:100186000C06030100000000F8FC04C424FCF8007F
:10019600070F0908080F0700001018FCFC000000F4
:1001A6000008080F0F080800080C84C4643C1800F7
:1001B6000E0F0908080C0C00080C444444FCB80057
:1001C600040C0808080F0700C0E0B098FCFC80008B
:1001D600000000080F0F08007C7C4444C4C484005F
:1001E600040C0808080F0700F0F84C4444C08000CF
:1001F600070F0808080F07000C0C0484C47C3C0099
:1002060000000F0F00000000B8FC444444FCB80096
:10021600070F0808080F0700387C444444FCF80020
:10022600000808080C07030000000030300000003A
:10023600000000060600000000000030300000004C
:100246000000080E060000000080C060301808009C
:1002560000000103060C08004040404040404000BA
:1002660002020202020202000008183060C080008A
:1002760000080C0603010000181C04C4E43C180026
:100286000000000D0D000000F0F808C8C8F8F000E6
:10029600070F080B0B0B0100E0F0988C98F0E000BC
:1002A6000F0F0000000F0F0004FCFC4444FCB800D4
:1002B600080F0F08080F0700F0F80C04040C1800CC
:1002C60003070C08080C060004FCFC040CF8F000FC
:1002D600080F0F080C07030004FCFC44E40C1C0088
:1002E600080F0F08080C0E0004FCFC44E40C1C006C
:1002F600080F0F0800000000F0F80C84848C9800AA
:1003060003070C0808070F00FCFC404040FCFC00FB
:100316000F0F0000000F0F00000004FCFC0400009B
:100326000000080F0F08000000000004FCFC040099
:10033600070F08080F07000004FCFCC0F03C0C0087
:10034600080F0F00010F0E0004FCFC040000000063
:10035600080F0F08080C0E00FCFC387038FCFC0077
:100366000F0F0000000F0F00FCFC3870E0FCFC00D3
:100376000F0F0000000F0F00F0F80C040CF8F0004F
:1003860003070C080C07030004FCFC44447C3800FB
:10039600080F0F0800000000F8FC040404FCF80035
:1003A600070F080E3C3F270004FCFC44C4FC380041
:1003B600080F0F00000F0F00183C6444C49C18007F
:1003C600060E0808080F0700001C0CFCFC0C1C009D
:1003D6000000080F0F080000FCFC000000FCFC00F9
:1003E600070F0808080F0700FCFC000000FCFC00D3
:1003F6000103060C06030100FCFC008000FCFC0067
:10040600030F0E030E0F03000C3CF0C0F03C0C0073
:100416000C0F0300030F0C00003C7CC0C07C3C00AA
:100426000000080F0F0800001C0C84C4643C1C006C
:100436000E0F0908080C0E000000FCFC0404000066
:1004460000000F0F080800003870E0C080000000B0
:100456000000000103070E0000000404FCFC00007D
:10046600000008080F0F0000080C0603060C080021
:100476000000000000000000000000000000000076
:100486002020202020202020000003070400000058
:10049600000000000000000000A0A0A0E0C00000D6
:1004A600070F0808070F080004FCFC2060C0800046
:1004B600080F0708080F0700C0E020202060400052
:1004C600070F0808080C040080C06024FCFC00002C
:1004D600070F0808070F0800C0E0A0A0A0E0C000B2
:1004E600070F0808080C040040F8FC440C1800002C
:1004F600080F0F0800000000C0E02020C0E0200028
:10050600276F48487F3F000004FCFC4020E0C00005
:10051600080F0F00000F0F00000020ECEC00000099
:100526000000080F0F0800000000000020ECEC009F
:1005360000307040407F3F0004FCFC80C06020001B
:10054600080F0F01030E0C00000004FCFC00000065
:100556000000080F0F080000E0E060C060E0C00087
:100566000F0F000F000F0F0020E0C02020E0C0009A
:10057600000F0F00000F0F00C0E0202020E0C00099
:10058600070F0808080F070020E0C02020E0C00081
:10059600407F7F48080F0700C0E02020C0E0200011
:1005A600070F08487F7F400020E0C0602060C00041
:1005B600080F0F080000000040E0A0202060400067
:1005C600040C09090B0E04002020F8FC2020000072
:1005D6000000070F080C0400E0E00000E0E0000067
:1005E600070F0808070F080000E0E00000E0E00041
:1005F6000003070C0C070300E0E0000000E0E00049
:10060600070F0C070C0F07002060C080C060200099
:10061600080C0703070C0800E0E0000000E0E0001B
:10062600474F4848683F1F00606020A0E0602000F8
:100636000C0E0B09080C0C00004040F8BC0404002A
:10064600000000070F080800000000BCBC00000006
:100656000000000F0F000000000404BCF84040003A
:100666000008080F07000000080C040C080C040022
:10067600000000000000000080C0603060C0800004
:08068600070704040407070044
:100AAE00EF14600F14601114601324037013D283BB
:100ABE00D28422D283C28422C283D28422C283C22F
:020ACE00842280
:0E0BA400C280C281120AAED2828DA0C282220D
:0E0BB200D280C281120AAED2828DA0C28222EF
:100B750075A0FFD280D281120AAED282AFA0C28206
:010B8500224D
:070BFC00ED44B8FD020BA45B
:070C0300ED4440FD020BA4CB
:100A6100AE05AC03AB07EEC39440AD0350097F0163
:100A7100120BFCAD0680097F02120BFCEE24C0FDB7
:090A8100120C03AD04120BB222A9
:0409A200AC05AB07EE
:1009A600ECC39440AD0350137F01120BFCAD04124F
:1009B6000C03120B75AE077F0180137F02120BFC2E
:1009C600EC24C0FD120C03120B75AE077F02120B4E
:0109D60075AB
:0109D70022FD
:0608B4008B21AA05A90733
:1008BA00EA131313541FFFC374069FF522AD01FFF9
:1008CA001209A2AB07EA540714FF7480A80708802C
:1008DA0002C313D8FCFFE5216005EF42038004EF51
:0A08EA00F45203AD01AF22020A61CF
:0A0808008F118D128B138A148915CD
:10081200E4F516AD120512AB13AA14A915851682BA
:10082200758300120756FBAF11120A610516E51611
:10083200C3940C40DE74F42512F51275160CE51102
:1008420004FFAD120512AB13AA14A9158516827501
:100852008300120756FB120A610516E516C39418A7
:0208620040DC78
:010864002271
:0607A5008F118B12A90563
:1007AB00E4FA75F010E512A4248EF582E5F034FE20
:1007BB00F583E5822AF582E43583F583E493FBAD7B
:1007CB000109AF11120A610ABA08D774F829F97A2C
:1007DB000875F010E512A4248EF582E5F034FEF5D1
:1007EB0083E5822AF582E43583F583E493FBE511F7
:0C07FB0004FFAD0109120A610ABA10D512
:0108070022CE
:0A068E008F088D098B0A8A0B890C76
:10069800E4F50FF510AB0AAA0BA90C851082758337
:1006A800001207566004051080EBAB0AAA0BA90CD0
:1006B800850F82758300120756F50D850F827583A5
:1006C80000A3120756F50EE50DC39480500FAB0D2D
:1006D800AD09AF081207A5050F74088049E4FFEFBC
:1006E80075F01AA42426F582E43400F583E493B562
:1006F8000D14EF75F01AA42427F582E43400F5836D
:10070800E493650E60040FBF04D5EF75F01AA424B6
:1007180028F9740035F0FA7BFFAD09AF0812080814
:10072800050F050F740C2509F509E50FC395105041
:04073800030206B200
:01073C00229A
:100B3A00E4FAE4F9AF02AD01E4FB120A6109B980F3
:050B4A00F30ABA08EDFA
:010B4F002283
:100A3600C285D285C281C280C2827F03120AAE7D80
:100A46003F7F01120BA47DC0120BA47F03120AAED6
:0B0A56007D3F1F120BA47DC0020BA40B
:03000000020BE60A
:0C0BE600787FE4F6D8FD758122020A8AAF
:10073D00BB010689828A83E0225002E722BBFE02BA
:09074D00E32289828A83E49322ED
:10075600BB010CE58229F582E5833AF583E0225058
:1007660006E92582F8E622BBFE06E92582F8E222A2
:0D077600E58229F582E5833AF583E49322BC
:10078300F8BB010DE58229F582E5833AF583E8F0AC
:10079300225006E92582C8F622BBFE05E92582C858
:0207A300F22240
:00000001FF
