:0A0C3F003443101001C2C2C2C2C14A
:10000300E4FEEF30E704D2958002C295EF25E0FFCE
:0E001300D297309603430701C2970EBE08E451
:0100210022BC
:100BD3007F027E00120B21C292D294C297D293223B
:0C0C0D00C294120003E4FF120003D29412
:010C190022B8
:0E0B0200120B107D407F25120B107D077F2601
:100B1000C294120003AC07AF05120003D294AF04D5
:010B200022B2
:060A5B008B098A0A890BD9
:100A6100C294120003AD07E4FCECC3950C5017E4EB
:100A7100FF120003AB09AA0AA90B8C82758300EF50
:0A0A81001207830C80E3D294AF0546
:010A8B002248
:060A29008B098A0A890B0B
:100A2F00C294120003AD07E4FCECC3950C5018AB55
:100A3F0009050BE50BAA0A7002050A14F912073D06
:0B0A4F00FF1200030C80E2D294AF0500
:010A5A002279
:1008BE008B178A188919C2927BFF7A0C793F750CB7
:1008CE00057F30120A29AB17AA18A919750C047FD7
:1008DE00A0120A297D017F21120B107F22120B100C
:1008EE007D0A7F24120B027D0E7F20120B10D292F6
:0708FE007F057E00020B21C3
:10090500C2927BFF7A0C793F750C057F2A120A2962
:100915007BFF7A0C7944750C057F2B120A297D0320
:100925007F21120B107F22120B100D7F31120B103D
:100935007F32120B027D0F7F20120B10D2927F05A2
:050945007E00020B2101
:100BB0007F07120C0D8F203005077DFF7F27120B5A
:020BC000102201
:100865007F07120C0D8F2030064EE520540EC292E4
:1008750024FE600C240270167B007A007921800624
:100885007B007A007926750C047F61120A5B7B0078
:100895007A0079217D4B7F0112068E7B007A0079E3
:1008A500267D4B7F0312068E7DFF7F27120B10C21C
:0808B500947FE2120003D294CB
:0108BD002218
:0D0BE300EFD3940040077E6EDEFE1F80F30E
:010BF00022E2
:100B2100D3EF9400EE940040147D6E7C00ED1D70B7
:0D0B3100011CED4C70F7EF1F70E61E80E315
:010B3E002294
:100B7100CDA8B5C030CAFDBEDD3A00CDA8B5C031A3
:060B8100CAFDBEDD3A00D2
:1009F600E4F525F52A120A8C120B87120B3F120B0F
:100A0600D37BFF7A0B79717D0A7F0112068E7BFFFD
:100A16007A0B797C7D0A7F0312068E12090512086D
:030A26006580F8F0
:100B580031322E330033322E360035362E370033FD
:090B6800362E390038392E340014
:100B3F00E4F587758920758DFD758BFDC29FD29E5B
:090B4F00D2AFD2ACD28ED29C22AE
:0C0C2700C2AC8F993099FDC299D2AC226A
:100B9D0012073DFF600C120C27740129F9E43AFA93
:030BAD0080EE22B5
:03002300020C1AB2
:0D0C1A00C2AC309805C29885991CD2AC324E
:10098A00E51C6453702FF51CFB7A007921120B9D2C
:10099A007BFF7A0B7958120B9D7A0B795D120B9DAE
:1009AA007A0B7962120B9D7A0B7967120B9D7A0B7F
:0609BA00796C120B9D2276
:10002600CDA82022E400F9A9ABFDABA9F90008048C
:1000360003040B08080B080A0B08B5C02022EC00C5
:1000460002FBAAAEAAFB020208040304080B0A0A72
:100056000A0B0808CAFDA596CCBF968510CC07E406
:100066001C04080906020508080403040808BEDD86
:100076004848FF2808FE2A2AFA2AAF220408070859
:1000860007000F0505050F01000000000000000035
:100096000000000000000000000038FCFC380000F2
:1000A6000000000D0D000000000E1E00001E0E00D8
:1000B600000000000000000020F8F820F8F82000FA
:1000C600020F0F020F0F0200387C444747CC9800FE
:1000D6000306041C1C07030030300080C06030009B
:1000E6000C060301000C0C0080D87CE4BCD8400050
:1000F600070F0808070F080000101E0E000000007A
:1001060000000000000000000000F0F80C040000F1
:10011600000003070C0800000000040CF8F00000C3
:100126000000080C0703000080A0E0C0C0E0A0802B
:100136000002030101030200008080E0E0808000ED
:1001460000000003030000000000000000000000A3
:100156000000101E0E0000008080808080808000DD
:100166000000000000000000000000000000000089
:100176000000000C0C00000000000080C060300091
:100186000C06030100000000F8FC04C424FCF8007F
:10019600070F0908080F0700001018FCFC000000F4
:1001A6000008080F0F080800080C84C4643C1800F7
:1001B6000E0F0908080C0C00080C444444FCB80057
:1001C600040C0808080F0700C0E0B098FCFC80008B
:1001D600000000080F0F08007C7C4444C4C484005F
:1001E600040C0808080F0700F0F84C4444C08000CF
:1001F600070F0808080F07000C0C0484C47C3C0099
:1002060000000F0F00000000B8FC444444FCB80096
:10021600070F0808080F0700387C444444FCF80020
:10022600000808080C07030000000030300000003A
:10023600000000060600000000000030300000004C
:100246000000080E060000000080C060301808009C
:1002560000000103060C08004040404040404000BA
:1002660002020202020202000008183060C080008A
:1002760000080C0603010000181C04C4E43C180026
:100286000000000D0D000000F0F808C8C8F8F000E6
:10029600070F080B0B0B0100E0F0988C98F0E000BC
:1002A6000F0F0000000F0F0004FCFC4444FCB800D4
:1002B600080F0F08080F0700F0F80C04040C1800CC
:1002C60003070C08080C060004FCFC040CF8F000FC
:1002D600080F0F080C07030004FCFC44E40C1C0088
:1002E600080F0F08080C0E0004FCFC44E40C1C006C
:1002F600080F0F0800000000F0F80C84848C9800AA
:1003060003070C0808070F00FCFC404040FCFC00FB
:100316000F0F0000000F0F00000004FCFC0400009B
:100326000000080F0F08000000000004FCFC040099
:10033600070F08080F07000004FCFCC0F03C0C0087
:10034600080F0F00010F0E0004FCFC040000000063
:10035600080F0F08080C0E00FCFC387038FCFC0077
:100366000F0F0000000F0F00FCFC3870E0FCFC00D3
:100376000F0F0000000F0F00F0F80C040CF8F0004F
:1003860003070C080C07030004FCFC44447C3800FB
:10039600080F0F0800000000F8FC040404FCF80035
:1003A600070F080E3C3F270004FCFC44C4FC380041
:1003B600080F0F00000F0F00183C6444C49C18007F
:1003C600060E0808080F0700001C0CFCFC0C1C009D
:1003D6000000080F0F080000FCFC000000FCFC00F9
:1003E600070F0808080F0700FCFC000000FCFC00D3
:1003F6000103060C06030100FCFC008000FCFC0067
:10040600030F0E030E0F03000C3CF0C0F03C0C0073
:100416000C0F0300030F0C00003C7CC0C07C3C00AA
:100426000000080F0F0800001C0C84C4643C1C006C
:100436000E0F0908080C0E000000FCFC0404000066
:1004460000000F0F080800003870E0C080000000B0
:100456000000000103070E0000000404FCFC00007D
:10046600000008080F0F0000080C0603060C080021
:100476000000000000000000000000000000000076
:100486002020202020202020000003070400000058
:10049600000000000000000000A0A0A0E0C00000D6
:1004A600070F0808070F080004FCFC2060C0800046
:1004B600080F0708080F0700C0E020202060400052
:1004C600070F0808080C040080C06024FCFC00002C
:1004D600070F0808070F0800C0E0A0A0A0E0C000B2
:1004E600070F0808080C040040F8FC440C1800002C
:1004F600080F0F0800000000C0E02020C0E0200028
:10050600276F48487F3F000004FCFC4020E0C00005
:10051600080F0F00000F0F00000020ECEC00000099
:100526000000080F0F0800000000000020ECEC009F
:1005360000307040407F3F0004FCFC80C06020001B
:10054600080F0F01030E0C00000004FCFC00000065
:100556000000080F0F080000E0E060C060E0C00087
:100566000F0F000F000F0F0020E0C02020E0C0009A
:10057600000F0F00000F0F00C0E0202020E0C00099
:10058600070F0808080F070020E0C02020E0C00081
:10059600407F7F48080F0700C0E02020C0E0200011
:1005A600070F08487F7F400020E0C0602060C00041
:1005B600080F0F080000000040E0A0202060400067
:1005C600040C09090B0E04002020F8FC2020000072
:1005D6000000070F080C0400E0E00000E0E0000067
:1005E600070F0808070F080000E0E00000E0E00041
:1005F6000003070C0C070300E0E0000000E0E00049
:10060600070F0C070C0F07002060C080C060200099
:10061600080C0703070C0800E0E0000000E0E0001B
:10062600474F4848683F1F00606020A0E0602000F8
:100636000C0E0B09080C0C00004040F8BC0404002A
:10064600000000070F080800000000BCBC00000006
:100656000000000F0F000000000404BCF84040003A
:100666000008080F07000000080C040C080C040022
:10067600000000000000000080C0603060C0800004
:08068600070704040407070044
:100AE000EF14600F14601114601324037013D28389
:100AF000D28422D283C28422C283D28422C283C2FD
:020B000084224D
:0E0BF100C280C281120AE0D2828DA0C282228E
:0E0BFF00D280C281120AE0D2828DA0C2822270
:100BC20075A0FFD280D281120AE0D282AFA0C28287
:010BD2002200
:070C4900ED44B8FD020BF1C0
:070C5000ED4440FD020BF131
:100AB700AE05AC03AB07EEC39440AD0350097F010D
:100AC700120C49AD0680097F02120C49EE24C0FDC5
:090AD700120C50AD04120BFF22B9
:0409C000AC05AB07D0
:1009C400ECC39440AD0350137F01120C49AD0412E3
:1009D4000C50120BC2AE077F0180137F02120C4928
:1009E400EC24C0FD120C50120BC2AE077F02120B96
:0109F400C240
:0109F50022DF
:06094A008B1AAA05A907A3
:10095000EA131313541FFFC374069FF51BAD01FF69
:100960001209C0AB07EA540714FF7480A807088077
:1009700002C313D8FCFFE51A6005EF42038004EFC1
:0A098000F45203AD01AF1B020AB7E9
:0A0808008F118D128B138A148915CD
:10081200E4F516AD120512AB13AA14A915851682BA
:10082200758300120756FBAF11120AB70516E516BB
:10083200C3940C40DE74F42512F51275160CE51102
:1008420004FFAD120512AB13AA14A9158516827501
:100852008300120756FB120AB70516E516C3941851
:0208620040DC78
:010864002271
:0607A5008F118B12A90563
:1007AB00E4FA75F010E512A4248EF582E5F034FE20
:1007BB00F583E5822AF582E43583F583E493FBAD7B
:1007CB000109AF11120AB70ABA08D774F829F97AD6
:1007DB000875F010E512A4248EF582E5F034FEF5D1
:1007EB0083E5822AF582E43583F583E493FBE511F7
:0C07FB0004FFAD0109120AB70ABA10D5BC
:0108070022CE
:0A068E008F088D098B0A8A0B890C76
:10069800E4F50FF510AB0AAA0BA90C851082758337
:1006A800001207566004051080EBAB0AAA0BA90CD0
:1006B800850F82758300120756F50D850F827583A5
:1006C80000A3120756F50EE50DC39480500FAB0D2D
:1006D800AD09AF081207A5050F74088049E4FFEFBC
:1006E80075F01AA42426F582E43400F583E493B562
:1006F8000D14EF75F01AA42427F582E43400F5836D
:10070800E493650E60040FBF04D5EF75F01AA424B6
:1007180028F9740035F0FA7BFFAD09AF0812080814
:10072800050F050F740C2509F509E50FC395105041
:04073800030206B200
:01073C00229A
:100B8700E4FAE4F9AF02AD01E4FB120AB709B98050
:050B9700F30ABA08EDAD
:010B9C002236
:100A8C00C285D285C281C280C2827F03120AE07DF8
:100A9C003F7F01120BF17DC0120BF17F03120AE0B4
:0B0AAC007D3F1F120BF17DC0020BF11B
:03000000020C33BC
:0C0C3300787FE4F6D8FD75812A0209F6EE
:10073D00BB010689828A83E0225002E722BBFE02BA
:09074D00E32289828A83E49322ED
:10075600BB010CE58229F582E5833AF583E0225058
:1007660006E92582F8E622BBFE06E92582F8E222A2
:0D077600E58229F582E5833AF583E49322BC
:10078300F8BB010DE58229F582E5833AF583E8F0AC
:10079300225006E92582C8F622BBFE05E92582C858
:0207A300F22240
:00000001FF
