:050578003443101001E6
:1004CB00E4FEEF30E704D2A48002C2A4EF25E0FFE4
:0E04DB00D2A130A203430701C2A10EBE08E465
:0104E90022F0
:10054F007F027E001204EAC2A0D2A3C2A1D2A522CA
:0C055F00C2A31204CBE4FF1204CBD2A311
:01056B00226D
:090523007D017F2112052C7F22CD
:10052C00C2A31204CBAC07AF051204CBD2A3AF0409
:01053C00229C
:06041C008B168A178918F7
:10042200C2A31204CBAD07E4FCECC395195017E448
:10043200FF1204CBAB16AA17A9188C82758300EFA2
:0A0442001201E10C80E3D2A3AF0524
:01044C00228D
:0B0373007BFF7A0579787514057F2A5E
:06037E008B118A128913A5
:10038400C2A31204CBAD07E4FCECC395145018AB24
:10039400110513E513AA127002051214F91201C80B
:0B03A400FF1204CB0C80E2D2A3AF05D7
:0103AF00222B
:100324008B0D8A0E890FC2A07BFF7A05797875142C
:10033400057F3012037E120373AB0DAA0EA90F754D
:1003440014047FA012037E1205237D0A7F24120564
:100354002C7D407F2512052C7D077F2612052C7DE0
:0F0364000E7F2012052CD2A07F057E000204EA36
:10047B00C2A01203731205237D407F2512052C7D2C
:10048B00047F3112052C7D077F2612052C7D0F7FF3
:0D049B002012052CD2A07F057E000204EA8D
:1004A8007F0712055F8F202005033004137DFF7F2F
:1004B8002712052CC2A37FE11204CBD2A37F00220E
:0304C8007F01228F
:06044D008B218A228923A5
:10045300E4FB7F0712055F8F20300612C2A0AB2199
:10046300AA22A9237519047F6112041C7B017DFF55
:070473007F2712052CAF03E7
:01047A00225F
:1004EA00D3EF9400EE940040147D6E7C00ED1D70F5
:0D04FA00011CED4C70F7EF1F70E61E80E353
:0105070022D1
:10053D00E4FDFCC3ED9FEC9E50070DBD00010C804A
:01054D00F2BB
:01054E00228A
:1002660012054F7C007D647FA97E00120203EF24F5
:1002760030F5087C007D647FA97E001202037E00B3
:100286007F0ACFCDCFCECCCE120203EF2430F509B4
:10029600750A2E7E007FA97C007D641202037E0013
:1002A6007F0ACFCDCFCECCCE120203ED2430F50B94
:1002B6007B007A0079081203241204A8EF60A48058
:0102C600F83F
:10050800D2907F087E0012053DC2907F557E001272
:0B051800053DD2907F0E7E0002053DE5
:0203B0008F2498
:1003B200752500752608C290E5241392907F057E6C
:1003C2000012053DD290E524C313F524E526152637
:1003D20070021525D3E5269400E525940050D77FB9
:0603E200047E0002053D4F
:1003E800E4F51F751E08D2907F017E0012053DC2FC
:1003F80090E51FC313F51FD290309003431F807FF1
:10040800047E0012053D151EE51ED3940050D7AF9B
:030418001F7E0044
:01041B0022BE
:1002C7001205087FCC1203B07F441203B07F7D7EF6
:1002D7000012053D1205087FCC1203B07FBE120342
:1002E700B01203E88E1C8F1D1203E88E1A8F1BE5D0
:1002F7001B7F00FEEF251DFDE51C3EFCE412010EF1
:10030700E4FBFA7920783F1200031201478E278F0A
:0C031700287FC87E0012053DAE27AF28ED
:0103230022B7
:10000300EC4D6011E8497017ED33EC3304600DE4F7
:10001300FCFFFEFD22E933E8330470F80201B3125A
:10002300017E58046009E4CC24815006285009025B
:1000330001BD2840030201BAC0E0EB4A7044B98015
:1000430006D0E0FB0201A9EF4E701CBD8008EBFF58
:10005300EAFEE9FD80EBE98DF0A4FEE5F00200EC99
:10006300E9CDF9EAFEEBFFEF89F0A4FCE5F0CE89D8
:10007300F0A42EFFE435F0CD89F0A42DFEE435F095
:100083008067EF4E7005BD80D780C3EF8BF0A4ACC3
:10009300F0EE8BF0A42CFCE435F0F8EF8AF0A42CFE
:1000A300E5F038FCE433CB8DF0A42CFCE5F03BF811
:1000B300EE8AF0A42CFCE5F038F8E433CF89F0A401
:1000C3002CFCE5F038CF3400CE89F0A42FFFE5F007
:1000D3003EFEE433C98DF0A42EFEE5F039CD8AF05F
:1000E300A42FFFE5F03EFEE43DFD33D0E0FB5007D7
:1000F3000BBB000F0201BDEC2CFCEF33FFEE33FE14
:06010300ED33FD02019541
:1001090075F020800E75F010800575F0087D007E71
:10011900007F003392D530D503120258EC334010DA
:10012900EF33FFEE33FEED33FDEC33FCD5F0ED227A
:0E013900E5F0247EA2D513CC92E7CDCEFF22B6
:10014700EDD2E7CD33EC3392D524814006E4FFFEB0
:10015700FDFC22FCE4CFCECDCC24E0501174FF800F
:10016700EDC3CC13CCCD13CDCE13CECF13CF0470AC
:07017700F030D5DE02025852
:10017E00E9D2E7C933E833F892D5EDD2E7CD33ECC7
:07018E0033FC5002B2D52240
:10019500EC30E7100FBF000C0EBE00080DBD0004CB
:1001A5000BEB6014A2D5EB13FCED92E7FD2274FF77
:1001B500FCFDFEFF22E480F8A2D574FF13FC7D80D0
:0301C500E480EFE4
:0300000002056C8A
:0C056C00787FE4F6D8FD75812802026655
:1001C800BB010689828A83E0225002E722BBFE0235
:0901D800E32289828A83E4932268
:1001E100F8BB010DE58229F582E5833AF583E8F054
:1001F100225006E92582C8F622BBFE05E92582C800
:02020100F222E7
:10020300BC000BBE0029EF8DF084FFADF022E4CCDF
:10021300F875F008EF2FFFEE33FEEC33FCEE9DECA8
:10022300984005FCEE9DFE0FD5F0E9E4CEFD22EDEE
:10023300F8F5F0EE8420D21CFEADF075F008EF2F38
:10024300FFED33FD4007985006D5F0F222C398FD29
:050253000FD5F0EA22C6
:0E025800C3E49FFFE49EFEE49DFDE49CFC22B7
:00000001FF
